{
  "_format": "hh-sol-artifact-1",
  "contractName": "SecureVault",
  "sourceName": "contracts/SecureVault.sol",
  "abi": [
    {
      "inputs": [
        {
          "internalType": "address",
          "name": "_token",
          "type": "address"
        },
        {
          "internalType": "uint256",
          "name": "_depositLimit",
          "type": "uint256"
        }
      ],
      "stateMutability": "nonpayable",
      "type": "constructor"
    },
    {
      "anonymous": false,
      "inputs": [
        {
          "indexed": true,
          "internalType": "address",
          "name": "user",
          "type": "address"
        },
        {
          "indexed": false,
          "internalType": "uint256",
          "name": "amount",
          "type": "uint256"
        }
      ],
      "name": "Deposited",
      "type": "event"
    },
    {
      "anonymous": false,
      "inputs": [
        {
          "indexed": true,
          "internalType": "address",
          "name": "user",
          "type": "address"
        },
        {
          "indexed": false,
          "internalType": "uint256",
          "name": "amount",
          "type": "uint256"
        }
      ],
      "name": "EmergencyWithdrawal",
      "type": "event"
    },
    {
      "anonymous": false,
      "inputs": [
        {
          "indexed": false,
          "internalType": "address",
          "name": "account",
          "type": "address"
        }
      ],
      "name": "Paused",
      "type": "event"
    },
    {
      "anonymous": false,
      "inputs": [
        {
          "indexed": true,
          "internalType": "bytes32",
          "name": "role",
          "type": "bytes32"
        },
        {
          "indexed": true,
          "internalType": "bytes32",
          "name": "previousAdminRole",
          "type": "bytes32"
        },
        {
          "indexed": true,
          "internalType": "bytes32",
          "name": "newAdminRole",
          "type": "bytes32"
        }
      ],
      "name": "RoleAdminChanged",
      "type": "event"
    },
    {
      "anonymous": false,
      "inputs": [
        {
          "indexed": true,
          "internalType": "bytes32",
          "name": "role",
          "type": "bytes32"
        },
        {
          "indexed": true,
          "internalType": "address",
          "name": "account",
          "type": "address"
        },
        {
          "indexed": true,
          "internalType": "address",
          "name": "sender",
          "type": "address"
        }
      ],
      "name": "RoleGranted",
      "type": "event"
    },
    {
      "anonymous": false,
      "inputs": [
        {
          "indexed": true,
          "internalType": "bytes32",
          "name": "role",
          "type": "bytes32"
        },
        {
          "indexed": true,
          "internalType": "address",
          "name": "account",
          "type": "address"
        }
      ],
      "name": "RoleGranted",
      "type": "event"
    },
    {
      "anonymous": false,
      "inputs": [
        {
          "indexed": true,
          "internalType": "bytes32",
          "name": "role",
          "type": "bytes32"
        },
        {
          "indexed": true,
          "internalType": "address",
          "name": "account",
          "type": "address"
        },
        {
          "indexed": true,
          "internalType": "address",
          "name": "sender",
          "type": "address"
        }
      ],
      "name": "RoleRevoked",
      "type": "event"
    },
    {
      "anonymous": false,
      "inputs": [
        {
          "indexed": true,
          "internalType": "bytes32",
          "name": "role",
          "type": "bytes32"
        },
        {
          "indexed": true,
          "internalType": "address",
          "name": "account",
          "type": "address"
        }
      ],
      "name": "RoleRevoked",
      "type": "event"
    },
    {
      "anonymous": false,
      "inputs": [
        {
          "indexed": false,
          "internalType": "address",
          "name": "account",
          "type": "address"
        }
      ],
      "name": "Unpaused",
      "type": "event"
    },
    {
      "anonymous": false,
      "inputs": [
        {
          "indexed": true,
          "internalType": "address",
          "name": "user",
          "type": "address"
        },
        {
          "indexed": false,
          "internalType": "uint256",
          "name": "amount",
          "type": "uint256"
        }
      ],
      "name": "Withdrawn",
      "type": "event"
    },
    {
      "inputs": [],
      "name": "ADMIN_ROLE",
      "outputs": [
        {
          "internalType": "bytes32",
          "name": "",
          "type": "bytes32"
        }
      ],
      "stateMutability": "view",
      "type": "function"
    },
    {
      "inputs": [],
      "name": "AUDITOR_ROLE",
      "outputs": [
        {
          "internalType": "bytes32",
          "name": "",
          "type": "bytes32"
        }
      ],
      "stateMutability": "view",
      "type": "function"
    },
    {
      "inputs": [],
      "name": "DEFAULT_ADMIN_ROLE",
      "outputs": [
        {
          "internalType": "bytes32",
          "name": "",
          "type": "bytes32"
        }
      ],
      "stateMutability": "view",
      "type": "function"
    },
    {
      "inputs": [],
      "name": "INVESTOR_ROLE",
      "outputs": [
        {
          "internalType": "bytes32",
          "name": "",
          "type": "bytes32"
        }
      ],
      "stateMutability": "view",
      "type": "function"
    },
    {
      "inputs": [
        {
          "internalType": "address",
          "name": "",
          "type": "address"
        }
      ],
      "name": "balances",
      "outputs": [
        {
          "internalType": "uint256",
          "name": "",
          "type": "uint256"
        }
      ],
      "stateMutability": "view",
      "type": "function"
    },
    {
      "inputs": [
        {
          "internalType": "uint256",
          "name": "amount",
          "type": "uint256"
        }
      ],
      "name": "deposit",
      "outputs": [],
      "stateMutability": "nonpayable",
      "type": "function"
    },
    {
      "inputs": [],
      "name": "depositLimitPerAddress",
      "outputs": [
        {
          "internalType": "uint256",
          "name": "",
          "type": "uint256"
        }
      ],
      "stateMutability": "view",
      "type": "function"
    },
    {
      "inputs": [],
      "name": "emergencyWithdraw",
      "outputs": [],
      "stateMutability": "nonpayable",
      "type": "function"
    },
    {
      "inputs": [
        {
          "internalType": "bytes32",
          "name": "role",
          "type": "bytes32"
        }
      ],
      "name": "getRoleAdmin",
      "outputs": [
        {
          "internalType": "bytes32",
          "name": "",
          "type": "bytes32"
        }
      ],
      "stateMutability": "view",
      "type": "function"
    },
    {
      "inputs": [
        {
          "internalType": "bytes32",
          "name": "role",
          "type": "bytes32"
        },
        {
          "internalType": "address",
          "name": "account",
          "type": "address"
        }
      ],
      "name": "grantRole",
      "outputs": [],
      "stateMutability": "nonpayable",
      "type": "function"
    },
    {
      "inputs": [
        {
          "internalType": "bytes32",
          "name": "role",
          "type": "bytes32"
        },
        {
          "internalType": "address",
          "name": "account",
          "type": "address"
        }
      ],
      "name": "grantVaultRole",
      "outputs": [],
      "stateMutability": "nonpayable",
      "type": "function"
    },
    {
      "inputs": [
        {
          "internalType": "bytes32",
          "name": "role",
          "type": "bytes32"
        },
        {
          "internalType": "address",
          "name": "account",
          "type": "address"
        }
      ],
      "name": "hasRole",
      "outputs": [
        {
          "internalType": "bool",
          "name": "",
          "type": "bool"
        }
      ],
      "stateMutability": "view",
      "type": "function"
    },
    {
      "inputs": [],
      "name": "pause",
      "outputs": [],
      "stateMutability": "nonpayable",
      "type": "function"
    },
    {
      "inputs": [],
      "name": "paused",
      "outputs": [
        {
          "internalType": "bool",
          "name": "",
          "type": "bool"
        }
      ],
      "stateMutability": "view",
      "type": "function"
    },
    {
      "inputs": [
        {
          "internalType": "bytes32",
          "name": "role",
          "type": "bytes32"
        },
        {
          "internalType": "address",
          "name": "account",
          "type": "address"
        }
      ],
      "name": "renounceRole",
      "outputs": [],
      "stateMutability": "nonpayable",
      "type": "function"
    },
    {
      "inputs": [
        {
          "internalType": "bytes32",
          "name": "role",
          "type": "bytes32"
        },
        {
          "internalType": "address",
          "name": "account",
          "type": "address"
        }
      ],
      "name": "revokeRole",
      "outputs": [],
      "stateMutability": "nonpayable",
      "type": "function"
    },
    {
      "inputs": [
        {
          "internalType": "bytes32",
          "name": "role",
          "type": "bytes32"
        },
        {
          "internalType": "address",
          "name": "account",
          "type": "address"
        }
      ],
      "name": "revokeVaultRole",
      "outputs": [],
      "stateMutability": "nonpayable",
      "type": "function"
    },
    {
      "inputs": [
        {
          "internalType": "uint256",
          "name": "newLimit",
          "type": "uint256"
        }
      ],
      "name": "setDepositLimit",
      "outputs": [],
      "stateMutability": "nonpayable",
      "type": "function"
    },
    {
      "inputs": [
        {
          "internalType": "bytes4",
          "name": "interfaceId",
          "type": "bytes4"
        }
      ],
      "name": "supportsInterface",
      "outputs": [
        {
          "internalType": "bool",
          "name": "",
          "type": "bool"
        }
      ],
      "stateMutability": "view",
      "type": "function"
    },
    {
      "inputs": [],
      "name": "token",
      "outputs": [
        {
          "internalType": "contract IERC20",
          "name": "",
          "type": "address"
        }
      ],
      "stateMutability": "view",
      "type": "function"
    },
    {
      "inputs": [],
      "name": "totalDeposits",
      "outputs": [
        {
          "internalType": "uint256",
          "name": "",
          "type": "uint256"
        }
      ],
      "stateMutability": "view",
      "type": "function"
    },
    {
      "inputs": [],
      "name": "unpause",
      "outputs": [],
      "stateMutability": "nonpayable",
      "type": "function"
    },
    {
      "inputs": [
        {
          "internalType": "uint256",
          "name": "amount",
          "type": "uint256"
        }
      ],
      "name": "withdraw",
      "outputs": [],
      "stateMutability": "nonpayable",
      "type": "function"
    }
  ],
  "bytecode": "0x60a06040523480156200001157600080fd5b50604051620026eb380380620026eb833981810160405281019062000037919062000374565b6000600160006101000a81548160ff0219169083151502179055506001600281905550600073ffffffffffffffffffffffffffffffffffffffff168273ffffffffffffffffffffffffffffffffffffffff1603620000cc576040517f08c379a0000000000000000000000000000000000000000000000000000000008152600401620000c3906200041c565b60405180910390fd5b8173ffffffffffffffffffffffffffffffffffffffff1660808173ffffffffffffffffffffffffffffffffffffffff1681525050806004819055506200011c6000801b336200015660201b60201c565b6200014e7fa49807205ce4d355092ef5a8a18f56e8913cf4a201fbe287825b095693c21775336200015660201b60201c565b50506200043e565b6200016882826200016c60201b60201c565b5050565b6200017e82826200025d60201b60201c565b6200025957600160008084815260200190815260200160002060000160008373ffffffffffffffffffffffffffffffffffffffff1673ffffffffffffffffffffffffffffffffffffffff16815260200190815260200160002060006101000a81548160ff021916908315150217905550620001fe620002c760201b60201c565b73ffffffffffffffffffffffffffffffffffffffff168173ffffffffffffffffffffffffffffffffffffffff16837f2f8788117e7eff1d82e926ec794901d17c78024a50270940304540a733656f0d60405160405180910390a45b5050565b600080600084815260200190815260200160002060000160008373ffffffffffffffffffffffffffffffffffffffff1673ffffffffffffffffffffffffffffffffffffffff16815260200190815260200160002060009054906101000a900460ff16905092915050565b600033905090565b600080fd5b600073ffffffffffffffffffffffffffffffffffffffff82169050919050565b60006200030182620002d4565b9050919050565b6200031381620002f4565b81146200031f57600080fd5b50565b600081519050620003338162000308565b92915050565b6000819050919050565b6200034e8162000339565b81146200035a57600080fd5b50565b6000815190506200036e8162000343565b92915050565b600080604083850312156200038e576200038d620002cf565b5b60006200039e8582860162000322565b9250506020620003b1858286016200035d565b9150509250929050565b600082825260208201905092915050565b7f546f6b656e20616464726573732063616e6e6f74206265207a65726f00000000600082015250565b600062000404601c83620003bb565b91506200041182620003cc565b602082019050919050565b600060208201905081810360008301526200043781620003f5565b9050919050565b60805161227c6200046f6000396000818161062101528181610bd501528181610e830152610fba015261227c6000f3fe608060405234801561001057600080fd5b506004361061014d5760003560e01c806376082a5e116100c3578063b6b55f251161007c578063b6b55f2514610366578063bdc8144b14610382578063d547741f1461039e578063db2e21bc146103ba578063fc0c546a146103c4578063fe7371e9146103e25761014d565b806376082a5e146102b65780637d882097146102d457806381a3fdb6146102f25780638456cb591461030e57806391d1485414610318578063a217fddf146103485761014d565b80632f2ff15d116101155780632f2ff15d1461021a57806336568abe146102365780633f4ba83a146102525780635c975abb1461025c5780636e1d616e1461027a57806375b238fc146102985761014d565b806301ffc9a714610152578063248a9ca31461018257806327e235e3146101b25780632e1a7d4d146101e25780632ef48421146101fe575b600080fd5b61016c60048036038101906101679190611723565b610400565b604051610179919061176b565b60405180910390f35b61019c600480360381019061019791906117bc565b61047a565b6040516101a991906117f8565b60405180910390f35b6101cc60048036038101906101c79190611871565b610499565b6040516101d991906118b7565b60405180910390f35b6101fc60048036038101906101f791906118fe565b6104b1565b005b6102186004803603810190610213919061192b565b610756565b005b610234600480360381019061022f919061192b565b6107d3565b005b610250600480360381019061024b919061192b565b6107f4565b005b61025a610877565b005b6102646108ac565b604051610271919061176b565b60405180910390f35b6102826108c3565b60405161028f91906117f8565b60405180910390f35b6102a06108e7565b6040516102ad91906117f8565b60405180910390f35b6102be61090b565b6040516102cb91906117f8565b60405180910390f35b6102dc61092f565b6040516102e991906118b7565b60405180910390f35b61030c6004803603810190610307919061192b565b610935565b005b6103166109b2565b005b610332600480360381019061032d919061192b565b6109e7565b60405161033f919061176b565b60405180910390f35b610350610a51565b60405161035d91906117f8565b60405180910390f35b610380600480360381019061037b91906118fe565b610a58565b005b61039c600480360381019061039791906118fe565b610d0c565b005b6103b860048036038101906103b3919061192b565b610d41565b005b6103c2610d62565b005b6103cc610fb8565b6040516103d991906119ca565b60405180910390f35b6103ea610fdc565b6040516103f791906118b7565b60405180910390f35b60007f7965db0b000000000000000000000000000000000000000000000000000000007bffffffffffffffffffffffffffffffffffffffffffffffffffffffff1916827bffffffffffffffffffffffffffffffffffffffffffffffffffffffff19161480610473575061047282610fe2565b5b9050919050565b6000806000838152602001908152602001600020600101549050919050565b60056020528060005260406000206000915090505481565b6104b961104c565b6104c1611096565b7fb165298935924f540e4181c03493a5d686c54a0aaeb3f6216de85b7ffbba77386104eb816110e3565b6000821161052e576040517f08c379a000000000000000000000000000000000000000000000000000000000815260040161052590611a42565b60405180910390fd5b81600560003373ffffffffffffffffffffffffffffffffffffffff1673ffffffffffffffffffffffffffffffffffffffff1681526020019081526020016000205410156105b0576040517f08c379a00000000000000000000000000000000000000000000000000000000081526004016105a790611aae565b60405180910390fd5b81600560003373ffffffffffffffffffffffffffffffffffffffff1673ffffffffffffffffffffffffffffffffffffffff16815260200190815260200160002060008282546105ff9190611afd565b9250508190555081600360008282546106189190611afd565b925050819055507f000000000000000000000000000000000000000000000000000000000000000073ffffffffffffffffffffffffffffffffffffffff1663a9059cbb33846040518363ffffffff1660e01b815260040161067a929190611b40565b6020604051808303816000875af1158015610699573d6000803e3d6000fd5b505050506040513d601f19601f820116820180604052508101906106bd9190611b95565b6106fc576040517f08c379a00000000000000000000000000000000000000000000000000000000081526004016106f390611c0e565b60405180910390fd5b3373ffffffffffffffffffffffffffffffffffffffff167f7084f5476618d8e60b11ef0d7d3f06914655adb8793e28ff7f018d4c76d505d58360405161074291906118b7565b60405180910390a2506107536110f7565b50565b7fa49807205ce4d355092ef5a8a18f56e8913cf4a201fbe287825b095693c21775610780816110e3565b61078a8383611101565b8173ffffffffffffffffffffffffffffffffffffffff16837f155aaafb6329a2098580462df33ec4b7441b19729b9601c5fc17ae1cf99a8a5260405160405180910390a3505050565b6107dc8261047a565b6107e5816110e3565b6107ef83836111e2565b505050565b6107fc6112c2565b73ffffffffffffffffffffffffffffffffffffffff168173ffffffffffffffffffffffffffffffffffffffff1614610869576040517f08c379a000000000000000000000000000000000000000000000000000000000815260040161086090611ca0565b60405180910390fd5b6108738282611101565b5050565b7fa49807205ce4d355092ef5a8a18f56e8913cf4a201fbe287825b095693c217756108a1816110e3565b6108a96112ca565b50565b6000600160009054906101000a900460ff16905090565b7f59a1c48e5837ad7a7f3dcedcbe129bf3249ec4fbf651fd4f5e2600ead39fe2f581565b7fa49807205ce4d355092ef5a8a18f56e8913cf4a201fbe287825b095693c2177581565b7fb165298935924f540e4181c03493a5d686c54a0aaeb3f6216de85b7ffbba773881565b60035481565b7fa49807205ce4d355092ef5a8a18f56e8913cf4a201fbe287825b095693c2177561095f816110e3565b61096983836111e2565b8173ffffffffffffffffffffffffffffffffffffffff16837f2ae6a113c0ed5b78a53413ffbb7679881f11145ccfba4fb92e863dfcd5a1d2f360405160405180910390a3505050565b7fa49807205ce4d355092ef5a8a18f56e8913cf4a201fbe287825b095693c217756109dc816110e3565b6109e461132d565b50565b600080600084815260200190815260200160002060000160008373ffffffffffffffffffffffffffffffffffffffff1673ffffffffffffffffffffffffffffffffffffffff16815260200190815260200160002060009054906101000a900460ff16905092915050565b6000801b81565b610a6061104c565b610a68611096565b7fb165298935924f540e4181c03493a5d686c54a0aaeb3f6216de85b7ffbba7738610a92816110e3565b60008211610ad5576040517f08c379a0000000000000000000000000000000000000000000000000000000008152600401610acc90611a42565b60405180910390fd5b60045482600560003373ffffffffffffffffffffffffffffffffffffffff1673ffffffffffffffffffffffffffffffffffffffff16815260200190815260200160002054610b239190611cc0565b1115610b64576040517f08c379a0000000000000000000000000000000000000000000000000000000008152600401610b5b90611d40565b60405180910390fd5b81600560003373ffffffffffffffffffffffffffffffffffffffff1673ffffffffffffffffffffffffffffffffffffffff1681526020019081526020016000206000828254610bb39190611cc0565b925050819055508160036000828254610bcc9190611cc0565b925050819055507f000000000000000000000000000000000000000000000000000000000000000073ffffffffffffffffffffffffffffffffffffffff166323b872dd3330856040518463ffffffff1660e01b8152600401610c3093929190611d60565b6020604051808303816000875af1158015610c4f573d6000803e3d6000fd5b505050506040513d601f19601f82011682018060405250810190610c739190611b95565b610cb2576040517f08c379a0000000000000000000000000000000000000000000000000000000008152600401610ca990611c0e565b60405180910390fd5b3373ffffffffffffffffffffffffffffffffffffffff167f2da466a7b24304f47e87fa2e1e5a81b9831ce54fec19055ce277ca2f39ba42c483604051610cf891906118b7565b60405180910390a250610d096110f7565b50565b7fa49807205ce4d355092ef5a8a18f56e8913cf4a201fbe287825b095693c21775610d36816110e3565b816004819055505050565b610d4a8261047a565b610d53816110e3565b610d5d8383611101565b505050565b610d6a61138f565b610d72611096565b7fb165298935924f540e4181c03493a5d686c54a0aaeb3f6216de85b7ffbba7738610d9c816110e3565b6000600560003373ffffffffffffffffffffffffffffffffffffffff1673ffffffffffffffffffffffffffffffffffffffff16815260200190815260200160002054905060008111610e23576040517f08c379a0000000000000000000000000000000000000000000000000000000008152600401610e1a90611de3565b60405180910390fd5b6000600560003373ffffffffffffffffffffffffffffffffffffffff1673ffffffffffffffffffffffffffffffffffffffff168152602001908152602001600020819055508060036000828254610e7a9190611afd565b925050819055507f000000000000000000000000000000000000000000000000000000000000000073ffffffffffffffffffffffffffffffffffffffff1663a9059cbb33836040518363ffffffff1660e01b8152600401610edc929190611b40565b6020604051808303816000875af1158015610efb573d6000803e3d6000fd5b505050506040513d601f19601f82011682018060405250810190610f1f9190611b95565b610f5e576040517f08c379a0000000000000000000000000000000000000000000000000000000008152600401610f5590611c0e565b60405180910390fd5b3373ffffffffffffffffffffffffffffffffffffffff167f23d6711a1d031134a36921253c75aa59e967d38e369ac625992824315e204f2082604051610fa491906118b7565b60405180910390a25050610fb66110f7565b565b7f000000000000000000000000000000000000000000000000000000000000000081565b60045481565b60007f01ffc9a7000000000000000000000000000000000000000000000000000000007bffffffffffffffffffffffffffffffffffffffffffffffffffffffff1916827bffffffffffffffffffffffffffffffffffffffffffffffffffffffff1916149050919050565b6110546108ac565b15611094576040517f08c379a000000000000000000000000000000000000000000000000000000000815260040161108b90611e4f565b60405180910390fd5b565b60028054036110da576040517f08c379a00000000000000000000000000000000000000000000000000000000081526004016110d190611ebb565b60405180910390fd5b60028081905550565b6110f4816110ef6112c2565b6113d8565b50565b6001600281905550565b61110b82826109e7565b156111de57600080600084815260200190815260200160002060000160008373ffffffffffffffffffffffffffffffffffffffff1673ffffffffffffffffffffffffffffffffffffffff16815260200190815260200160002060006101000a81548160ff0219169083151502179055506111836112c2565b73ffffffffffffffffffffffffffffffffffffffff168173ffffffffffffffffffffffffffffffffffffffff16837ff6391f5c32d9c69d2a47ea670b442974b53935d1edc7fd64eb21e047a839171b60405160405180910390a45b5050565b6111ec82826109e7565b6112be57600160008084815260200190815260200160002060000160008373ffffffffffffffffffffffffffffffffffffffff1673ffffffffffffffffffffffffffffffffffffffff16815260200190815260200160002060006101000a81548160ff0219169083151502179055506112636112c2565b73ffffffffffffffffffffffffffffffffffffffff168173ffffffffffffffffffffffffffffffffffffffff16837f2f8788117e7eff1d82e926ec794901d17c78024a50270940304540a733656f0d60405160405180910390a45b5050565b600033905090565b6112d261138f565b6000600160006101000a81548160ff0219169083151502179055507f5db9ee0a495bf2e6ff9c91a7834c1ba4fdd244a5e8aa4e537bd38aeae4b073aa6113166112c2565b6040516113239190611edb565b60405180910390a1565b61133561104c565b60018060006101000a81548160ff0219169083151502179055507f62e78cea01bee320cd4e420270b5ea74000d11b0c9f74754ebdbfc544b05a2586113786112c2565b6040516113859190611edb565b60405180910390a1565b6113976108ac565b6113d6576040517f08c379a00000000000000000000000000000000000000000000000000000000081526004016113cd90611f42565b60405180910390fd5b565b6113e282826109e7565b611459576113ef8161145d565b6113fd8360001c602061148a565b60405160200161140e92919061206b565b6040516020818303038152906040526040517f08c379a000000000000000000000000000000000000000000000000000000000815260040161145091906120ef565b60405180910390fd5b5050565b60606114838273ffffffffffffffffffffffffffffffffffffffff16601460ff1661148a565b9050919050565b60606000600283600261149d9190612111565b6114a79190611cc0565b67ffffffffffffffff8111156114c0576114bf612153565b5b6040519080825280601f01601f1916602001820160405280156114f25781602001600182028036833780820191505090505b5090507f30000000000000000000000000000000000000000000000000000000000000008160008151811061152a57611529612182565b5b60200101907effffffffffffffffffffffffffffffffffffffffffffffffffffffffffffff1916908160001a9053507f78000000000000000000000000000000000000000000000000000000000000008160018151811061158e5761158d612182565b5b60200101907effffffffffffffffffffffffffffffffffffffffffffffffffffffffffffff1916908160001a905350600060018460026115ce9190612111565b6115d89190611cc0565b90505b6001811115611678577f3031323334353637383961626364656600000000000000000000000000000000600f86166010811061161a57611619612182565b5b1a60f81b82828151811061163157611630612182565b5b60200101907effffffffffffffffffffffffffffffffffffffffffffffffffffffffffffff1916908160001a905350600485901c945080611671906121b1565b90506115db565b50600084146116bc576040517f08c379a00000000000000000000000000000000000000000000000000000000081526004016116b390612226565b60405180910390fd5b8091505092915050565b600080fd5b60007fffffffff0000000000000000000000000000000000000000000000000000000082169050919050565b611700816116cb565b811461170b57600080fd5b50565b60008135905061171d816116f7565b92915050565b600060208284031215611739576117386116c6565b5b60006117478482850161170e565b91505092915050565b60008115159050919050565b61176581611750565b82525050565b6000602082019050611780600083018461175c565b92915050565b6000819050919050565b61179981611786565b81146117a457600080fd5b50565b6000813590506117b681611790565b92915050565b6000602082840312156117d2576117d16116c6565b5b60006117e0848285016117a7565b91505092915050565b6117f281611786565b82525050565b600060208201905061180d60008301846117e9565b92915050565b600073ffffffffffffffffffffffffffffffffffffffff82169050919050565b600061183e82611813565b9050919050565b61184e81611833565b811461185957600080fd5b50565b60008135905061186b81611845565b92915050565b600060208284031215611887576118866116c6565b5b60006118958482850161185c565b91505092915050565b6000819050919050565b6118b18161189e565b82525050565b60006020820190506118cc60008301846118a8565b92915050565b6118db8161189e565b81146118e657600080fd5b50565b6000813590506118f8816118d2565b92915050565b600060208284031215611914576119136116c6565b5b6000611922848285016118e9565b91505092915050565b60008060408385031215611942576119416116c6565b5b6000611950858286016117a7565b92505060206119618582860161185c565b9150509250929050565b6000819050919050565b600061199061198b61198684611813565b61196b565b611813565b9050919050565b60006119a282611975565b9050919050565b60006119b482611997565b9050919050565b6119c4816119a9565b82525050565b60006020820190506119df60008301846119bb565b92915050565b600082825260208201905092915050565b7f416d6f756e74206d7573742062652067726561746572207468616e2030000000600082015250565b6000611a2c601d836119e5565b9150611a37826119f6565b602082019050919050565b60006020820190508181036000830152611a5b81611a1f565b9050919050565b7f496e73756666696369656e742062616c616e6365000000000000000000000000600082015250565b6000611a986014836119e5565b9150611aa382611a62565b602082019050919050565b60006020820190508181036000830152611ac781611a8b565b9050919050565b7f4e487b7100000000000000000000000000000000000000000000000000000000600052601160045260246000fd5b6000611b088261189e565b9150611b138361189e565b9250828203905081811115611b2b57611b2a611ace565b5b92915050565b611b3a81611833565b82525050565b6000604082019050611b556000830185611b31565b611b6260208301846118a8565b9392505050565b611b7281611750565b8114611b7d57600080fd5b50565b600081519050611b8f81611b69565b92915050565b600060208284031215611bab57611baa6116c6565b5b6000611bb984828501611b80565b91505092915050565b7f5472616e73666572206661696c65640000000000000000000000000000000000600082015250565b6000611bf8600f836119e5565b9150611c0382611bc2565b602082019050919050565b60006020820190508181036000830152611c2781611beb565b9050919050565b7f416363657373436f6e74726f6c3a2063616e206f6e6c792072656e6f756e636560008201527f20726f6c657320666f722073656c660000000000000000000000000000000000602082015250565b6000611c8a602f836119e5565b9150611c9582611c2e565b604082019050919050565b60006020820190508181036000830152611cb981611c7d565b9050919050565b6000611ccb8261189e565b9150611cd68361189e565b9250828201905080821115611cee57611ced611ace565b5b92915050565b7f4465706f736974206c696d697420657863656564656400000000000000000000600082015250565b6000611d2a6016836119e5565b9150611d3582611cf4565b602082019050919050565b60006020820190508181036000830152611d5981611d1d565b9050919050565b6000606082019050611d756000830186611b31565b611d826020830185611b31565b611d8f60408301846118a8565b949350505050565b7f4e6f2066756e647320746f207769746864726177000000000000000000000000600082015250565b6000611dcd6014836119e5565b9150611dd882611d97565b602082019050919050565b60006020820190508181036000830152611dfc81611dc0565b9050919050565b7f5061757361626c653a2070617573656400000000000000000000000000000000600082015250565b6000611e396010836119e5565b9150611e4482611e03565b602082019050919050565b60006020820190508181036000830152611e6881611e2c565b9050919050565b7f5265656e7472616e637947756172643a207265656e7472616e742063616c6c00600082015250565b6000611ea5601f836119e5565b9150611eb082611e6f565b602082019050919050565b60006020820190508181036000830152611ed481611e98565b9050919050565b6000602082019050611ef06000830184611b31565b92915050565b7f5061757361626c653a206e6f7420706175736564000000000000000000000000600082015250565b6000611f2c6014836119e5565b9150611f3782611ef6565b602082019050919050565b60006020820190508181036000830152611f5b81611f1f565b9050919050565b600081905092915050565b7f416363657373436f6e74726f6c3a206163636f756e7420000000000000000000600082015250565b6000611fa3601783611f62565b9150611fae82611f6d565b601782019050919050565b600081519050919050565b60005b83811015611fe2578082015181840152602081019050611fc7565b60008484015250505050565b6000611ff982611fb9565b6120038185611f62565b9350612013818560208601611fc4565b80840191505092915050565b7f206973206d697373696e6720726f6c6520000000000000000000000000000000600082015250565b6000612055601183611f62565b91506120608261201f565b601182019050919050565b600061207682611f96565b91506120828285611fee565b915061208d82612048565b91506120998284611fee565b91508190509392505050565b6000601f19601f8301169050919050565b60006120c182611fb9565b6120cb81856119e5565b93506120db818560208601611fc4565b6120e4816120a5565b840191505092915050565b6000602082019050818103600083015261210981846120b6565b905092915050565b600061211c8261189e565b91506121278361189e565b92508282026121358161189e565b9150828204841483151761214c5761214b611ace565b5b5092915050565b7f4e487b7100000000000000000000000000000000000000000000000000000000600052604160045260246000fd5b7f4e487b7100000000000000000000000000000000000000000000000000000000600052603260045260246000fd5b60006121bc8261189e565b9150600082036121cf576121ce611ace565b5b600182039050919050565b7f537472696e67733a20686578206c656e67746820696e73756666696369656e74600082015250565b60006122106020836119e5565b915061221b826121da565b602082019050919050565b6000602082019050818103600083015261223f81612203565b905091905056fea26469706673582212209b3e222f4f0bc2fcef037f1b28b3c1e6284f8941287c449422d089a7d71fd6d064736f6c63430008140033",
  "linkReferences": {},
  "deployedLinkReferences": {}
}