{"abi":[{"type":"constructor","inputs":[{"name":"_token","type":"address","internalType":"address"},{"name":"_depositLimit","type":"uint256","internalType":"uint256"}],"stateMutability":"nonpayable"},{"type":"function","name":"ADMIN_ROLE","inputs":[],"outputs":[{"name":"","type":"bytes32","internalType":"bytes32"}],"stateMutability":"view"},{"type":"function","name":"AUDITOR_ROLE","inputs":[],"outputs":[{"name":"","type":"bytes32","internalType":"bytes32"}],"stateMutability":"view"},{"type":"function","name":"DEFAULT_ADMIN_ROLE","inputs":[],"outputs":[{"name":"","type":"bytes32","internalType":"bytes32"}],"stateMutability":"view"},{"type":"function","name":"INVESTOR_ROLE","inputs":[],"outputs":[{"name":"","type":"bytes32","internalType":"bytes32"}],"stateMutability":"view"},{"type":"function","name":"balances","inputs":[{"name":"","type":"address","internalType":"address"}],"outputs":[{"name":"","type":"uint256","internalType":"uint256"}],"stateMutability":"view"},{"type":"function","name":"deposit","inputs":[{"name":"amount","type":"uint256","internalType":"uint256"}],"outputs":[],"stateMutability":"nonpayable"},{"type":"function","name":"depositLimitPerAddress","inputs":[],"outputs":[{"name":"","type":"uint256","internalType":"uint256"}],"stateMutability":"view"},{"type":"function","name":"emergencyWithdraw","inputs":[],"outputs":[],"stateMutability":"nonpayable"},{"type":"function","name":"getMyBalance","inputs":[],"outputs":[{"name":"","type":"uint256","internalType":"uint256"}],"stateMutability":"view"},{"type":"function","name":"getRoleAdmin","inputs":[{"name":"role","type":"bytes32","internalType":"bytes32"}],"outputs":[{"name":"","type":"bytes32","internalType":"bytes32"}],"stateMutability":"view"},{"type":"function","name":"grantRole","inputs":[{"name":"role","type":"bytes32","internalType":"bytes32"},{"name":"account","type":"address","internalType":"address"}],"outputs":[],"stateMutability":"nonpayable"},{"type":"function","name":"grantVaultRole","inputs":[{"name":"role","type":"bytes32","internalType":"bytes32"},{"name":"account","type":"address","internalType":"address"}],"outputs":[],"stateMutability":"nonpayable"},{"type":"function","name":"hasRole","inputs":[{"name":"role","type":"bytes32","internalType":"bytes32"},{"name":"account","type":"address","internalType":"address"}],"outputs":[{"name":"","type":"bool","internalType":"bool"}],"stateMutability":"view"},{"type":"function","name":"pause","inputs":[],"outputs":[],"stateMutability":"nonpayable"},{"type":"function","name":"paused","inputs":[],"outputs":[{"name":"","type":"bool","internalType":"bool"}],"stateMutability":"view"},{"type":"function","name":"recoverERC20","inputs":[{"name":"tokenAddress","type":"address","internalType":"address"},{"name":"amount","type":"uint256","internalType":"uint256"}],"outputs":[],"stateMutability":"nonpayable"},{"type":"function","name":"renounceRole","inputs":[{"name":"role","type":"bytes32","internalType":"bytes32"},{"name":"account","type":"address","internalType":"address"}],"outputs":[],"stateMutability":"nonpayable"},{"type":"function","name":"revokeRole","inputs":[{"name":"role","type":"bytes32","internalType":"bytes32"},{"name":"account","type":"address","internalType":"address"}],"outputs":[],"stateMutability":"nonpayable"},{"type":"function","name":"revokeVaultRole","inputs":[{"name":"role","type":"bytes32","internalType":"bytes32"},{"name":"account","type":"address","internalType":"address"}],"outputs":[],"stateMutability":"nonpayable"},{"type":"function","name":"setDepositLimit","inputs":[{"name":"newLimit","type":"uint256","internalType":"uint256"}],"outputs":[],"stateMutability":"nonpayable"},{"type":"function","name":"supportsInterface","inputs":[{"name":"interfaceId","type":"bytes4","internalType":"bytes4"}],"outputs":[{"name":"","type":"bool","internalType":"bool"}],"stateMutability":"view"},{"type":"function","name":"token","inputs":[],"outputs":[{"name":"","type":"address","internalType":"contract IERC20"}],"stateMutability":"view"},{"type":"function","name":"totalDeposits","inputs":[],"outputs":[{"name":"","type":"uint256","internalType":"uint256"}],"stateMutability":"view"},{"type":"function","name":"unpause","inputs":[],"outputs":[],"stateMutability":"nonpayable"},{"type":"function","name":"viewBalance","inputs":[{"name":"account","type":"address","internalType":"address"}],"outputs":[{"name":"","type":"uint256","internalType":"uint256"}],"stateMutability":"view"},{"type":"function","name":"withdraw","inputs":[{"name":"amount","type":"uint256","internalType":"uint256"}],"outputs":[],"stateMutability":"nonpayable"},{"type":"event","name":"DepositLimitUpdated","inputs":[{"name":"newLimit","type":"uint256","indexed":false,"internalType":"uint256"}],"anonymous":false},{"type":"event","name":"Deposited","inputs":[{"name":"user","type":"address","indexed":true,"internalType":"address"},{"name":"amount","type":"uint256","indexed":false,"internalType":"uint256"},{"name":"total","type":"uint256","indexed":false,"internalType":"uint256"}],"anonymous":false},{"type":"event","name":"EmergencyWithdrawal","inputs":[{"name":"user","type":"address","indexed":true,"internalType":"address"},{"name":"amount","type":"uint256","indexed":false,"internalType":"uint256"},{"name":"total","type":"uint256","indexed":false,"internalType":"uint256"}],"anonymous":false},{"type":"event","name":"Paused","inputs":[{"name":"account","type":"address","indexed":false,"internalType":"address"}],"anonymous":false},{"type":"event","name":"RoleAdminChanged","inputs":[{"name":"role","type":"bytes32","indexed":true,"internalType":"bytes32"},{"name":"previousAdminRole","type":"bytes32","indexed":true,"internalType":"bytes32"},{"name":"newAdminRole","type":"bytes32","indexed":true,"internalType":"bytes32"}],"anonymous":false},{"type":"event","name":"RoleGranted","inputs":[{"name":"role","type":"bytes32","indexed":true,"internalType":"bytes32"},{"name":"account","type":"address","indexed":true,"internalType":"address"},{"name":"sender","type":"address","indexed":true,"internalType":"address"}],"anonymous":false},{"type":"event","name":"RoleRevoked","inputs":[{"name":"role","type":"bytes32","indexed":true,"internalType":"bytes32"},{"name":"account","type":"address","indexed":true,"internalType":"address"},{"name":"sender","type":"address","indexed":true,"internalType":"address"}],"anonymous":false},{"type":"event","name":"Unpaused","inputs":[{"name":"account","type":"address","indexed":false,"internalType":"address"}],"anonymous":false},{"type":"event","name":"Withdrawn","inputs":[{"name":"user","type":"address","indexed":true,"internalType":"address"},{"name":"amount","type":"uint256","indexed":false,"internalType":"uint256"},{"name":"total","type":"uint256","indexed":false,"internalType":"uint256"}],"anonymous":false}],"bytecode":{"object":"0x60a060405234801562000010575f80fd5b5060405162002c6d38038062002c6d833981810160405281019062000036919062000359565b5f60015f6101000a81548160ff02191690831515021790555060016002819055505f73ffffffffffffffffffffffffffffffffffffffff168273ffffffffffffffffffffffffffffffffffffffff1603620000c8576040517f08c379a0000000000000000000000000000000000000000000000000000000008152600401620000bf90620003fc565b60405180910390fd5b8173ffffffffffffffffffffffffffffffffffffffff1660808173ffffffffffffffffffffffffffffffffffffffff168152505080600481905550620001175f801b336200015160201b60201c565b620001497fa49807205ce4d355092ef5a8a18f56e8913cf4a201fbe287825b095693c21775336200015160201b60201c565b50506200041c565b6200016382826200016760201b60201c565b5050565b6200017982826200025260201b60201c565b6200024e5760015f808481526020019081526020015f205f015f8373ffffffffffffffffffffffffffffffffffffffff1673ffffffffffffffffffffffffffffffffffffffff1681526020019081526020015f205f6101000a81548160ff021916908315150217905550620001f3620002b560201b60201c565b73ffffffffffffffffffffffffffffffffffffffff168173ffffffffffffffffffffffffffffffffffffffff16837f2f8788117e7eff1d82e926ec794901d17c78024a50270940304540a733656f0d60405160405180910390a45b5050565b5f805f8481526020019081526020015f205f015f8373ffffffffffffffffffffffffffffffffffffffff1673ffffffffffffffffffffffffffffffffffffffff1681526020019081526020015f205f9054906101000a900460ff16905092915050565b5f33905090565b5f80fd5b5f73ffffffffffffffffffffffffffffffffffffffff82169050919050565b5f620002eb82620002c0565b9050919050565b620002fd81620002df565b811462000308575f80fd5b50565b5f815190506200031b81620002f2565b92915050565b5f819050919050565b620003358162000321565b811462000340575f80fd5b50565b5f8151905062000353816200032a565b92915050565b5f8060408385031215620003725762000371620002bc565b5b5f62000381858286016200030b565b9250506020620003948582860162000343565b9150509250929050565b5f82825260208201905092915050565b7f546f6b656e20616464726573732063616e6e6f74206265207a65726f000000005f82015250565b5f620003e4601c836200039e565b9150620003f182620003ae565b602082019050919050565b5f6020820190508181035f8301526200041581620003d6565b9050919050565b60805161281c620004515f395f81816106c001528181610a0401528181610ca501528181610f640152611008015261281c5ff3fe608060405234801561000f575f80fd5b506004361061018c575f3560e01c80637d882097116100dc578063b6b55f2511610095578063d547741f1161006f578063d547741f14610446578063db2e21bc14610462578063fc0c546a1461046c578063fe7371e91461048a5761018c565b8063b6b55f25146103de578063bdc8144b146103fa578063c1a13d1a146104165761018c565b80637d8820971461033057806381a3fdb61461034e5780638456cb591461036a5780638980f11f1461037457806391d1485414610390578063a217fddf146103c05761018c565b806336568abe116101495780635c975abb116101235780635c975abb146102b85780636e1d616e146102d657806375b238fc146102f457806376082a5e146103125761018c565b806336568abe146102745780633f4ba83a146102905780634c7389091461029a5761018c565b806301ffc9a714610190578063248a9ca3146101c057806327e235e3146101f05780632e1a7d4d146102205780632ef484211461023c5780632f2ff15d14610258575b5f80fd5b6101aa60048036038101906101a59190611aed565b6104a8565b6040516101b79190611b32565b60405180910390f35b6101da60048036038101906101d59190611b7e565b610521565b6040516101e79190611bb8565b60405180910390f35b61020a60048036038101906102059190611c2b565b61053d565b6040516102179190611c6e565b60405180910390f35b61023a60048036038101906102359190611cb1565b610552565b005b61025660048036038101906102519190611cdc565b610762565b005b610272600480360381019061026d9190611cdc565b61079b565b005b61028e60048036038101906102899190611cdc565b6107bc565b005b61029861083f565b005b6102a2610874565b6040516102af9190611c6e565b60405180910390f35b6102c06108e3565b6040516102cd9190611b32565b60405180910390f35b6102de6108f8565b6040516102eb9190611bb8565b60405180910390f35b6102fc61091c565b6040516103099190611bb8565b60405180910390f35b61031a610940565b6040516103279190611bb8565b60405180910390f35b610338610964565b6040516103459190611c6e565b60405180910390f35b61036860048036038101906103639190611cdc565b61096a565b005b6103726109a3565b005b61038e60048036038101906103899190611d1a565b6109d8565b005b6103aa60048036038101906103a59190611cdc565b610ac0565b6040516103b79190611b32565b60405180910390f35b6103c8610b23565b6040516103d59190611bb8565b60405180910390f35b6103f860048036038101906103f39190611cb1565b610b29565b005b610414600480360381019061040f9190611cb1565b610d48565b005b610430600480360381019061042b9190611c2b565b610db4565b60405161043d9190611c6e565b60405180910390f35b610460600480360381019061045b9190611cdc565b610e25565b005b61046a610e46565b005b610474611006565b6040516104819190611db3565b60405180910390f35b61049261102a565b60405161049f9190611c6e565b60405180910390f35b5f7f7965db0b000000000000000000000000000000000000000000000000000000007bffffffffffffffffffffffffffffffffffffffffffffffffffffffff1916827bffffffffffffffffffffffffffffffffffffffffffffffffffffffff1916148061051a575061051982611030565b5b9050919050565b5f805f8381526020019081526020015f20600101549050919050565b6005602052805f5260405f205f915090505481565b61055a611099565b6105626110e3565b7fb165298935924f540e4181c03493a5d686c54a0aaeb3f6216de85b7ffbba773861058c81611130565b5f82116105ce576040517f08c379a00000000000000000000000000000000000000000000000000000000081526004016105c590611e26565b60405180910390fd5b8160055f3373ffffffffffffffffffffffffffffffffffffffff1673ffffffffffffffffffffffffffffffffffffffff1681526020019081526020015f2054101561064e576040517f08c379a000000000000000000000000000000000000000000000000000000000815260040161064590611e8e565b60405180910390fd5b8160055f3373ffffffffffffffffffffffffffffffffffffffff1673ffffffffffffffffffffffffffffffffffffffff1681526020019081526020015f205f82825461069a9190611ed9565b925050819055508160035f8282546106b29190611ed9565b9250508190555061070433837f000000000000000000000000000000000000000000000000000000000000000073ffffffffffffffffffffffffffffffffffffffff166111449092919063ffffffff16565b3373ffffffffffffffffffffffffffffffffffffffff167f92ccf450a286a957af52509bc1c9939d1a6a481783e142e41e2499f0bb66ebc68360035460405161074e929190611f0c565b60405180910390a25061075f6111ca565b50565b7fa49807205ce4d355092ef5a8a18f56e8913cf4a201fbe287825b095693c2177561078c81611130565b61079683836111d4565b505050565b6107a482610521565b6107ad81611130565b6107b783836112ae565b505050565b6107c4611388565b73ffffffffffffffffffffffffffffffffffffffff168173ffffffffffffffffffffffffffffffffffffffff1614610831576040517f08c379a000000000000000000000000000000000000000000000000000000000815260040161082890611fa3565b60405180910390fd5b61083b82826111d4565b5050565b7fa49807205ce4d355092ef5a8a18f56e8913cf4a201fbe287825b095693c2177561086981611130565b61087161138f565b50565b5f7fb165298935924f540e4181c03493a5d686c54a0aaeb3f6216de85b7ffbba773861089f81611130565b60055f3373ffffffffffffffffffffffffffffffffffffffff1673ffffffffffffffffffffffffffffffffffffffff1681526020019081526020015f205491505090565b5f60015f9054906101000a900460ff16905090565b7f59a1c48e5837ad7a7f3dcedcbe129bf3249ec4fbf651fd4f5e2600ead39fe2f581565b7fa49807205ce4d355092ef5a8a18f56e8913cf4a201fbe287825b095693c2177581565b7fb165298935924f540e4181c03493a5d686c54a0aaeb3f6216de85b7ffbba773881565b60035481565b7fa49807205ce4d355092ef5a8a18f56e8913cf4a201fbe287825b095693c2177561099481611130565b61099e83836112ae565b505050565b7fa49807205ce4d355092ef5a8a18f56e8913cf4a201fbe287825b095693c217756109cd81611130565b6109d56113f0565b50565b7fa49807205ce4d355092ef5a8a18f56e8913cf4a201fbe287825b095693c21775610a0281611130565b7f000000000000000000000000000000000000000000000000000000000000000073ffffffffffffffffffffffffffffffffffffffff168373ffffffffffffffffffffffffffffffffffffffff1603610a90576040517f08c379a0000000000000000000000000000000000000000000000000000000008152600401610a879061200b565b60405180910390fd5b610abb33838573ffffffffffffffffffffffffffffffffffffffff166111449092919063ffffffff16565b505050565b5f805f8481526020019081526020015f205f015f8373ffffffffffffffffffffffffffffffffffffffff1673ffffffffffffffffffffffffffffffffffffffff1681526020019081526020015f205f9054906101000a900460ff16905092915050565b5f801b81565b610b31611099565b610b396110e3565b7fb165298935924f540e4181c03493a5d686c54a0aaeb3f6216de85b7ffbba7738610b6381611130565b5f8211610ba5576040517f08c379a0000000000000000000000000000000000000000000000000000000008152600401610b9c90611e26565b60405180910390fd5b6004548260055f3373ffffffffffffffffffffffffffffffffffffffff1673ffffffffffffffffffffffffffffffffffffffff1681526020019081526020015f2054610bf19190612029565b1115610c32576040517f08c379a0000000000000000000000000000000000000000000000000000000008152600401610c29906120a6565b60405180910390fd5b8160055f3373ffffffffffffffffffffffffffffffffffffffff1673ffffffffffffffffffffffffffffffffffffffff1681526020019081526020015f205f828254610c7e9190612029565b925050819055508160035f828254610c969190612029565b92505081905550610cea3330847f000000000000000000000000000000000000000000000000000000000000000073ffffffffffffffffffffffffffffffffffffffff16611451909392919063ffffffff16565b3373ffffffffffffffffffffffffffffffffffffffff167f73a19dd210f1a7f902193214c0ee91dd35ee5b4d920cba8d519eca65a7b488ca83600354604051610d34929190611f0c565b60405180910390a250610d456111ca565b50565b7fa49807205ce4d355092ef5a8a18f56e8913cf4a201fbe287825b095693c21775610d7281611130565b816004819055507fc512617347fd848ec9d7347c99c10e4fa7059132c92d0445930a7fb0c8252ff582604051610da89190611c6e565b60405180910390a15050565b5f7f59a1c48e5837ad7a7f3dcedcbe129bf3249ec4fbf651fd4f5e2600ead39fe2f5610ddf81611130565b60055f8473ffffffffffffffffffffffffffffffffffffffff1673ffffffffffffffffffffffffffffffffffffffff1681526020019081526020015f2054915050919050565b610e2e82610521565b610e3781611130565b610e4183836111d4565b505050565b610e4e6114da565b610e566110e3565b7fb165298935924f540e4181c03493a5d686c54a0aaeb3f6216de85b7ffbba7738610e8081611130565b5f60055f3373ffffffffffffffffffffffffffffffffffffffff1673ffffffffffffffffffffffffffffffffffffffff1681526020019081526020015f205490505f8111610f03576040517f08c379a0000000000000000000000000000000000000000000000000000000008152600401610efa9061210e565b60405180910390fd5b5f60055f3373ffffffffffffffffffffffffffffffffffffffff1673ffffffffffffffffffffffffffffffffffffffff1681526020019081526020015f20819055508060035f828254610f569190611ed9565b92505081905550610fa833827f000000000000000000000000000000000000000000000000000000000000000073ffffffffffffffffffffffffffffffffffffffff166111449092919063ffffffff16565b3373ffffffffffffffffffffffffffffffffffffffff167f56da9a5ae0bcf6e7c3fdd78a10550e7d0458de1c39bfb7f6e96a3e92dd344a6882600354604051610ff2929190611f0c565b60405180910390a250506110046111ca565b565b7f000000000000000000000000000000000000000000000000000000000000000081565b60045481565b5f7f01ffc9a7000000000000000000000000000000000000000000000000000000007bffffffffffffffffffffffffffffffffffffffffffffffffffffffff1916827bffffffffffffffffffffffffffffffffffffffffffffffffffffffff1916149050919050565b6110a16108e3565b156110e1576040517f08c379a00000000000000000000000000000000000000000000000000000000081526004016110d890612176565b60405180910390fd5b565b6002805403611127576040517f08c379a000000000000000000000000000000000000000000000000000000000815260040161111e906121de565b60405180910390fd5b60028081905550565b6111418161113c611388565b611523565b50565b6111c58363a9059cbb60e01b848460405160240161116392919061220b565b604051602081830303815290604052907bffffffffffffffffffffffffffffffffffffffffffffffffffffffff19166020820180517bffffffffffffffffffffffffffffffffffffffffffffffffffffffff83818316178352505050506115a7565b505050565b6001600281905550565b6111de8282610ac0565b156112aa575f805f8481526020019081526020015f205f015f8373ffffffffffffffffffffffffffffffffffffffff1673ffffffffffffffffffffffffffffffffffffffff1681526020019081526020015f205f6101000a81548160ff02191690831515021790555061124f611388565b73ffffffffffffffffffffffffffffffffffffffff168173ffffffffffffffffffffffffffffffffffffffff16837ff6391f5c32d9c69d2a47ea670b442974b53935d1edc7fd64eb21e047a839171b60405160405180910390a45b5050565b6112b88282610ac0565b6113845760015f808481526020019081526020015f205f015f8373ffffffffffffffffffffffffffffffffffffffff1673ffffffffffffffffffffffffffffffffffffffff1681526020019081526020015f205f6101000a81548160ff021916908315150217905550611329611388565b73ffffffffffffffffffffffffffffffffffffffff168173ffffffffffffffffffffffffffffffffffffffff16837f2f8788117e7eff1d82e926ec794901d17c78024a50270940304540a733656f0d60405160405180910390a45b5050565b5f33905090565b6113976114da565b5f60015f6101000a81548160ff0219169083151502179055507f5db9ee0a495bf2e6ff9c91a7834c1ba4fdd244a5e8aa4e537bd38aeae4b073aa6113d9611388565b6040516113e69190612232565b60405180910390a1565b6113f8611099565b6001805f6101000a81548160ff0219169083151502179055507f62e78cea01bee320cd4e420270b5ea74000d11b0c9f74754ebdbfc544b05a25861143a611388565b6040516114479190612232565b60405180910390a1565b6114d4846323b872dd60e01b8585856040516024016114729392919061224b565b604051602081830303815290604052907bffffffffffffffffffffffffffffffffffffffffffffffffffffffff19166020820180517bffffffffffffffffffffffffffffffffffffffffffffffffffffffff83818316178352505050506115a7565b50505050565b6114e26108e3565b611521576040517f08c379a0000000000000000000000000000000000000000000000000000000008152600401611518906122ca565b60405180910390fd5b565b61152d8282610ac0565b6115a35761153a8161166d565b611547835f1c602061169a565b6040516020016115589291906123e8565b6040516020818303038152906040526040517f08c379a000000000000000000000000000000000000000000000000000000000815260040161159a9190612469565b60405180910390fd5b5050565b5f611608826040518060400160405280602081526020017f5361666545524332303a206c6f772d6c6576656c2063616c6c206661696c65648152508573ffffffffffffffffffffffffffffffffffffffff166118cf9092919063ffffffff16565b90505f8151148061162957508080602001905181019061162891906124b3565b5b611668576040517f08c379a000000000000000000000000000000000000000000000000000000000815260040161165f9061254e565b60405180910390fd5b505050565b60606116938273ffffffffffffffffffffffffffffffffffffffff16601460ff1661169a565b9050919050565b60605f60028360026116ac919061256c565b6116b69190612029565b67ffffffffffffffff8111156116cf576116ce6125ad565b5b6040519080825280601f01601f1916602001820160405280156117015781602001600182028036833780820191505090505b5090507f3000000000000000000000000000000000000000000000000000000000000000815f81518110611738576117376125da565b5b60200101907effffffffffffffffffffffffffffffffffffffffffffffffffffffffffffff191690815f1a9053507f78000000000000000000000000000000000000000000000000000000000000008160018151811061179b5761179a6125da565b5b60200101907effffffffffffffffffffffffffffffffffffffffffffffffffffffffffffff191690815f1a9053505f60018460026117d9919061256c565b6117e39190612029565b90505b6001811115611882577f3031323334353637383961626364656600000000000000000000000000000000600f861660108110611825576118246125da565b5b1a60f81b82828151811061183c5761183b6125da565b5b60200101907effffffffffffffffffffffffffffffffffffffffffffffffffffffffffffff191690815f1a905350600485901c94508061187b90612607565b90506117e6565b505f84146118c5576040517f08c379a00000000000000000000000000000000000000000000000000000000081526004016118bc90612678565b60405180910390fd5b8091505092915050565b60606118dd84845f856118e6565b90509392505050565b60608247101561192b576040517f08c379a000000000000000000000000000000000000000000000000000000000815260040161192290612706565b60405180910390fd5b5f808673ffffffffffffffffffffffffffffffffffffffff1685876040516119539190612768565b5f6040518083038185875af1925050503d805f811461198d576040519150601f19603f3d011682016040523d82523d5f602084013e611992565b606091505b50915091506119a3878383876119af565b92505050949350505050565b60608315611a10575f835103611a08576119c885611a23565b611a07576040517f08c379a00000000000000000000000000000000000000000000000000000000081526004016119fe906127c8565b60405180910390fd5b5b829050611a1b565b611a1a8383611a45565b5b949350505050565b5f808273ffffffffffffffffffffffffffffffffffffffff163b119050919050565b5f82511115611a575781518083602001fd5b806040517f08c379a0000000000000000000000000000000000000000000000000000000008152600401611a8b9190612469565b60405180910390fd5b5f80fd5b5f7fffffffff0000000000000000000000000000000000000000000000000000000082169050919050565b611acc81611a98565b8114611ad6575f80fd5b50565b5f81359050611ae781611ac3565b92915050565b5f60208284031215611b0257611b01611a94565b5b5f611b0f84828501611ad9565b91505092915050565b5f8115159050919050565b611b2c81611b18565b82525050565b5f602082019050611b455f830184611b23565b92915050565b5f819050919050565b611b5d81611b4b565b8114611b67575f80fd5b50565b5f81359050611b7881611b54565b92915050565b5f60208284031215611b9357611b92611a94565b5b5f611ba084828501611b6a565b91505092915050565b611bb281611b4b565b82525050565b5f602082019050611bcb5f830184611ba9565b92915050565b5f73ffffffffffffffffffffffffffffffffffffffff82169050919050565b5f611bfa82611bd1565b9050919050565b611c0a81611bf0565b8114611c14575f80fd5b50565b5f81359050611c2581611c01565b92915050565b5f60208284031215611c4057611c3f611a94565b5b5f611c4d84828501611c17565b91505092915050565b5f819050919050565b611c6881611c56565b82525050565b5f602082019050611c815f830184611c5f565b92915050565b611c9081611c56565b8114611c9a575f80fd5b50565b5f81359050611cab81611c87565b92915050565b5f60208284031215611cc657611cc5611a94565b5b5f611cd384828501611c9d565b91505092915050565b5f8060408385031215611cf257611cf1611a94565b5b5f611cff85828601611b6a565b9250506020611d1085828601611c17565b9150509250929050565b5f8060408385031215611d3057611d2f611a94565b5b5f611d3d85828601611c17565b9250506020611d4e85828601611c9d565b9150509250929050565b5f819050919050565b5f611d7b611d76611d7184611bd1565b611d58565b611bd1565b9050919050565b5f611d8c82611d61565b9050919050565b5f611d9d82611d82565b9050919050565b611dad81611d93565b82525050565b5f602082019050611dc65f830184611da4565b92915050565b5f82825260208201905092915050565b7f416d6f756e74206d7573742062652067726561746572207468616e20300000005f82015250565b5f611e10601d83611dcc565b9150611e1b82611ddc565b602082019050919050565b5f6020820190508181035f830152611e3d81611e04565b9050919050565b7f496e73756666696369656e742062616c616e63650000000000000000000000005f82015250565b5f611e78601483611dcc565b9150611e8382611e44565b602082019050919050565b5f6020820190508181035f830152611ea581611e6c565b9050919050565b7f4e487b71000000000000000000000000000000000000000000000000000000005f52601160045260245ffd5b5f611ee382611c56565b9150611eee83611c56565b9250828203905081811115611f0657611f05611eac565b5b92915050565b5f604082019050611f1f5f830185611c5f565b611f2c6020830184611c5f565b9392505050565b7f416363657373436f6e74726f6c3a2063616e206f6e6c792072656e6f756e63655f8201527f20726f6c657320666f722073656c660000000000000000000000000000000000602082015250565b5f611f8d602f83611dcc565b9150611f9882611f33565b604082019050919050565b5f6020820190508181035f830152611fba81611f81565b9050919050565b7f43616e6e6f74207265636f766572207661756c7420746f6b656e0000000000005f82015250565b5f611ff5601a83611dcc565b915061200082611fc1565b602082019050919050565b5f6020820190508181035f83015261202281611fe9565b9050919050565b5f61203382611c56565b915061203e83611c56565b925082820190508082111561205657612055611eac565b5b92915050565b7f4465706f736974206c696d6974206578636565646564000000000000000000005f82015250565b5f612090601683611dcc565b915061209b8261205c565b602082019050919050565b5f6020820190508181035f8301526120bd81612084565b9050919050565b7f4e6f2066756e647320746f2077697468647261770000000000000000000000005f82015250565b5f6120f8601483611dcc565b9150612103826120c4565b602082019050919050565b5f6020820190508181035f830152612125816120ec565b9050919050565b7f5061757361626c653a20706175736564000000000000000000000000000000005f82015250565b5f612160601083611dcc565b915061216b8261212c565b602082019050919050565b5f6020820190508181035f83015261218d81612154565b9050919050565b7f5265656e7472616e637947756172643a207265656e7472616e742063616c6c005f82015250565b5f6121c8601f83611dcc565b91506121d382612194565b602082019050919050565b5f6020820190508181035f8301526121f5816121bc565b9050919050565b61220581611bf0565b82525050565b5f60408201905061221e5f8301856121fc565b61222b6020830184611c5f565b9392505050565b5f6020820190506122455f8301846121fc565b92915050565b5f60608201905061225e5f8301866121fc565b61226b60208301856121fc565b6122786040830184611c5f565b949350505050565b7f5061757361626c653a206e6f74207061757365640000000000000000000000005f82015250565b5f6122b4601483611dcc565b91506122bf82612280565b602082019050919050565b5f6020820190508181035f8301526122e1816122a8565b9050919050565b5f81905092915050565b7f416363657373436f6e74726f6c3a206163636f756e74200000000000000000005f82015250565b5f6123266017836122e8565b9150612331826122f2565b601782019050919050565b5f81519050919050565b5f5b83811015612363578082015181840152602081019050612348565b5f8484015250505050565b5f6123788261233c565b61238281856122e8565b9350612392818560208601612346565b80840191505092915050565b7f206973206d697373696e6720726f6c65200000000000000000000000000000005f82015250565b5f6123d26011836122e8565b91506123dd8261239e565b601182019050919050565b5f6123f28261231a565b91506123fe828561236e565b9150612409826123c6565b9150612415828461236e565b91508190509392505050565b5f601f19601f8301169050919050565b5f61243b8261233c565b6124458185611dcc565b9350612455818560208601612346565b61245e81612421565b840191505092915050565b5f6020820190508181035f8301526124818184612431565b905092915050565b61249281611b18565b811461249c575f80fd5b50565b5f815190506124ad81612489565b92915050565b5f602082840312156124c8576124c7611a94565b5b5f6124d58482850161249f565b91505092915050565b7f5361666545524332303a204552433230206f7065726174696f6e20646964206e5f8201527f6f74207375636365656400000000000000000000000000000000000000000000602082015250565b5f612538602a83611dcc565b9150612543826124de565b604082019050919050565b5f6020820190508181035f8301526125658161252c565b9050919050565b5f61257682611c56565b915061258183611c56565b925082820261258f81611c56565b915082820484148315176125a6576125a5611eac565b5b5092915050565b7f4e487b71000000000000000000000000000000000000000000000000000000005f52604160045260245ffd5b7f4e487b71000000000000000000000000000000000000000000000000000000005f52603260045260245ffd5b5f61261182611c56565b91505f820361262357612622611eac565b5b600182039050919050565b7f537472696e67733a20686578206c656e67746820696e73756666696369656e745f82015250565b5f612662602083611dcc565b915061266d8261262e565b602082019050919050565b5f6020820190508181035f83015261268f81612656565b9050919050565b7f416464726573733a20696e73756666696369656e742062616c616e636520666f5f8201527f722063616c6c0000000000000000000000000000000000000000000000000000602082015250565b5f6126f0602683611dcc565b91506126fb82612696565b604082019050919050565b5f6020820190508181035f83015261271d816126e4565b9050919050565b5f81519050919050565b5f81905092915050565b5f61274282612724565b61274c818561272e565b935061275c818560208601612346565b80840191505092915050565b5f6127738284612738565b915081905092915050565b7f416464726573733a2063616c6c20746f206e6f6e2d636f6e74726163740000005f82015250565b5f6127b2601d83611dcc565b91506127bd8261277e565b602082019050919050565b5f6020820190508181035f8301526127df816127a6565b905091905056fea264697066735822122043e603fc2e3b3faf37d51ce32c629da089acace5eb7d8706e574da269f88c97264736f6c63430008140033","linkReferences":{}},"methodIdentifiers":{"ADMIN_ROLE()":"75b238fc","AUDITOR_ROLE()":"6e1d616e","DEFAULT_ADMIN_ROLE()":"a217fddf","INVESTOR_ROLE()":"76082a5e","balances(address)":"27e235e3","deposit(uint256)":"b6b55f25","depositLimitPerAddress()":"fe7371e9","emergencyWithdraw()":"db2e21bc","getMyBalance()":"4c738909","getRoleAdmin(bytes32)":"248a9ca3","grantRole(bytes32,address)":"2f2ff15d","grantVaultRole(bytes32,address)":"81a3fdb6","hasRole(bytes32,address)":"91d14854","pause()":"8456cb59","paused()":"5c975abb","recoverERC20(address,uint256)":"8980f11f","renounceRole(bytes32,address)":"36568abe","revokeRole(bytes32,address)":"d547741f","revokeVaultRole(bytes32,address)":"2ef48421","setDepositLimit(uint256)":"bdc8144b","supportsInterface(bytes4)":"01ffc9a7","token()":"fc0c546a","totalDeposits()":"7d882097","unpause()":"3f4ba83a","viewBalance(address)":"c1a13d1a","withdraw(uint256)":"2e1a7d4d"},"id":0}