{"abi":[{"type":"constructor","inputs":[],"stateMutability":"nonpayable"},{"type":"function","name":"ADMIN_ROLE","inputs":[],"outputs":[{"name":"","type":"bytes32","internalType":"bytes32"}],"stateMutability":"view"},{"type":"function","name":"AUDITOR_ROLE","inputs":[],"outputs":[{"name":"","type":"bytes32","internalType":"bytes32"}],"stateMutability":"view"},{"type":"function","name":"DEFAULT_ADMIN_ROLE","inputs":[],"outputs":[{"name":"","type":"bytes32","internalType":"bytes32"}],"stateMutability":"view"},{"type":"function","name":"INVESTOR_ROLE","inputs":[],"outputs":[{"name":"","type":"bytes32","internalType":"bytes32"}],"stateMutability":"view"},{"type":"function","name":"balances","inputs":[{"name":"","type":"address","internalType":"address"},{"name":"","type":"address","internalType":"address"}],"outputs":[{"name":"","type":"uint256","internalType":"uint256"}],"stateMutability":"view"},{"type":"function","name":"deposit","inputs":[{"name":"token","type":"address","internalType":"address"},{"name":"amount","type":"uint256","internalType":"uint256"}],"outputs":[],"stateMutability":"nonpayable"},{"type":"function","name":"depositLimitPerToken","inputs":[{"name":"","type":"address","internalType":"address"}],"outputs":[{"name":"","type":"uint256","internalType":"uint256"}],"stateMutability":"view"},{"type":"function","name":"emergencyWithdraw","inputs":[{"name":"token","type":"address","internalType":"address"}],"outputs":[],"stateMutability":"nonpayable"},{"type":"function","name":"getMyBalance","inputs":[{"name":"token","type":"address","internalType":"address"}],"outputs":[{"name":"","type":"uint256","internalType":"uint256"}],"stateMutability":"view"},{"type":"function","name":"getRoleAdmin","inputs":[{"name":"role","type":"bytes32","internalType":"bytes32"}],"outputs":[{"name":"","type":"bytes32","internalType":"bytes32"}],"stateMutability":"view"},{"type":"function","name":"grantRole","inputs":[{"name":"role","type":"bytes32","internalType":"bytes32"},{"name":"account","type":"address","internalType":"address"}],"outputs":[],"stateMutability":"nonpayable"},{"type":"function","name":"grantVaultRole","inputs":[{"name":"role","type":"bytes32","internalType":"bytes32"},{"name":"account","type":"address","internalType":"address"}],"outputs":[],"stateMutability":"nonpayable"},{"type":"function","name":"hasRole","inputs":[{"name":"role","type":"bytes32","internalType":"bytes32"},{"name":"account","type":"address","internalType":"address"}],"outputs":[{"name":"","type":"bool","internalType":"bool"}],"stateMutability":"view"},{"type":"function","name":"isTokenRegistered","inputs":[{"name":"","type":"address","internalType":"address"}],"outputs":[{"name":"","type":"bool","internalType":"bool"}],"stateMutability":"view"},{"type":"function","name":"isTokenWhitelisted","inputs":[{"name":"","type":"address","internalType":"address"}],"outputs":[{"name":"","type":"bool","internalType":"bool"}],"stateMutability":"view"},{"type":"function","name":"oracle","inputs":[],"outputs":[{"name":"","type":"address","internalType":"contract IPriceOracle"}],"stateMutability":"view"},{"type":"function","name":"pause","inputs":[],"outputs":[],"stateMutability":"nonpayable"},{"type":"function","name":"paused","inputs":[],"outputs":[{"name":"","type":"bool","internalType":"bool"}],"stateMutability":"view"},{"type":"function","name":"recoverERC20","inputs":[{"name":"tokenAddress","type":"address","internalType":"address"},{"name":"amount","type":"uint256","internalType":"uint256"}],"outputs":[],"stateMutability":"nonpayable"},{"type":"function","name":"registerToken","inputs":[{"name":"token","type":"address","internalType":"address"}],"outputs":[],"stateMutability":"nonpayable"},{"type":"function","name":"registeredTokens","inputs":[{"name":"","type":"uint256","internalType":"uint256"}],"outputs":[{"name":"","type":"address","internalType":"address"}],"stateMutability":"view"},{"type":"function","name":"renounceRole","inputs":[{"name":"role","type":"bytes32","internalType":"bytes32"},{"name":"account","type":"address","internalType":"address"}],"outputs":[],"stateMutability":"nonpayable"},{"type":"function","name":"revokeRole","inputs":[{"name":"role","type":"bytes32","internalType":"bytes32"},{"name":"account","type":"address","internalType":"address"}],"outputs":[],"stateMutability":"nonpayable"},{"type":"function","name":"revokeVaultRole","inputs":[{"name":"role","type":"bytes32","internalType":"bytes32"},{"name":"account","type":"address","internalType":"address"}],"outputs":[],"stateMutability":"nonpayable"},{"type":"function","name":"setDepositLimit","inputs":[{"name":"token","type":"address","internalType":"address"},{"name":"newLimit","type":"uint256","internalType":"uint256"}],"outputs":[],"stateMutability":"nonpayable"},{"type":"function","name":"setDepositLimits","inputs":[{"name":"tokens","type":"address[]","internalType":"address[]"},{"name":"limits","type":"uint256[]","internalType":"uint256[]"}],"outputs":[],"stateMutability":"nonpayable"},{"type":"function","name":"setOracle","inputs":[{"name":"_oracle","type":"address","internalType":"address"}],"outputs":[],"stateMutability":"nonpayable"},{"type":"function","name":"setTokenWhitelist","inputs":[{"name":"token","type":"address","internalType":"address"},{"name":"status","type":"bool","internalType":"bool"}],"outputs":[],"stateMutability":"nonpayable"},{"type":"function","name":"supportsInterface","inputs":[{"name":"interfaceId","type":"bytes4","internalType":"bytes4"}],"outputs":[{"name":"","type":"bool","internalType":"bool"}],"stateMutability":"view"},{"type":"function","name":"totalDeposits","inputs":[{"name":"","type":"address","internalType":"address"}],"outputs":[{"name":"","type":"uint256","internalType":"uint256"}],"stateMutability":"view"},{"type":"function","name":"totalValueLocked","inputs":[],"outputs":[{"name":"totalUSD","type":"uint256","internalType":"uint256"}],"stateMutability":"view"},{"type":"function","name":"unpause","inputs":[],"outputs":[],"stateMutability":"nonpayable"},{"type":"function","name":"viewBalance","inputs":[{"name":"token","type":"address","internalType":"address"},{"name":"account","type":"address","internalType":"address"}],"outputs":[{"name":"","type":"uint256","internalType":"uint256"}],"stateMutability":"view"},{"type":"function","name":"withdraw","inputs":[{"name":"token","type":"address","internalType":"address"},{"name":"amount","type":"uint256","internalType":"uint256"}],"outputs":[],"stateMutability":"nonpayable"},{"type":"event","name":"DepositLimitUpdated","inputs":[{"name":"token","type":"address","indexed":true,"internalType":"address"},{"name":"newLimit","type":"uint256","indexed":false,"internalType":"uint256"}],"anonymous":false},{"type":"event","name":"Deposited","inputs":[{"name":"token","type":"address","indexed":true,"internalType":"address"},{"name":"user","type":"address","indexed":true,"internalType":"address"},{"name":"amount","type":"uint256","indexed":false,"internalType":"uint256"},{"name":"total","type":"uint256","indexed":false,"internalType":"uint256"}],"anonymous":false},{"type":"event","name":"EmergencyWithdrawal","inputs":[{"name":"token","type":"address","indexed":true,"internalType":"address"},{"name":"user","type":"address","indexed":true,"internalType":"address"},{"name":"amount","type":"uint256","indexed":false,"internalType":"uint256"},{"name":"total","type":"uint256","indexed":false,"internalType":"uint256"}],"anonymous":false},{"type":"event","name":"OracleUpdated","inputs":[{"name":"newOracle","type":"address","indexed":true,"internalType":"address"}],"anonymous":false},{"type":"event","name":"Paused","inputs":[{"name":"account","type":"address","indexed":false,"internalType":"address"}],"anonymous":false},{"type":"event","name":"RoleAdminChanged","inputs":[{"name":"role","type":"bytes32","indexed":true,"internalType":"bytes32"},{"name":"previousAdminRole","type":"bytes32","indexed":true,"internalType":"bytes32"},{"name":"newAdminRole","type":"bytes32","indexed":true,"internalType":"bytes32"}],"anonymous":false},{"type":"event","name":"RoleGranted","inputs":[{"name":"role","type":"bytes32","indexed":true,"internalType":"bytes32"},{"name":"account","type":"address","indexed":true,"internalType":"address"},{"name":"sender","type":"address","indexed":true,"internalType":"address"}],"anonymous":false},{"type":"event","name":"RoleRevoked","inputs":[{"name":"role","type":"bytes32","indexed":true,"internalType":"bytes32"},{"name":"account","type":"address","indexed":true,"internalType":"address"},{"name":"sender","type":"address","indexed":true,"internalType":"address"}],"anonymous":false},{"type":"event","name":"TokenWhitelisted","inputs":[{"name":"token","type":"address","indexed":true,"internalType":"address"},{"name":"status","type":"bool","indexed":false,"internalType":"bool"}],"anonymous":false},{"type":"event","name":"Unpaused","inputs":[{"name":"account","type":"address","indexed":false,"internalType":"address"}],"anonymous":false},{"type":"event","name":"Withdrawn","inputs":[{"name":"token","type":"address","indexed":true,"internalType":"address"},{"name":"user","type":"address","indexed":true,"internalType":"address"},{"name":"amount","type":"uint256","indexed":false,"internalType":"uint256"},{"name":"total","type":"uint256","indexed":false,"internalType":"uint256"}],"anonymous":false}],"bytecode":{"object":"0x608060405234801562000010575f80fd5b505f60015f6101000a81548160ff0219169083151502179055506001600281905550620000465f801b336200007e60201b60201c565b620000787fa49807205ce4d355092ef5a8a18f56e8913cf4a201fbe287825b095693c21775336200007e60201b60201c565b620001e9565b6200009082826200009460201b60201c565b5050565b620000a682826200017f60201b60201c565b6200017b5760015f808481526020019081526020015f205f015f8373ffffffffffffffffffffffffffffffffffffffff1673ffffffffffffffffffffffffffffffffffffffff1681526020019081526020015f205f6101000a81548160ff02191690831515021790555062000120620001e260201b60201c565b73ffffffffffffffffffffffffffffffffffffffff168173ffffffffffffffffffffffffffffffffffffffff16837f2f8788117e7eff1d82e926ec794901d17c78024a50270940304540a733656f0d60405160405180910390a45b5050565b5f805f8481526020019081526020015f205f015f8373ffffffffffffffffffffffffffffffffffffffff1673ffffffffffffffffffffffffffffffffffffffff1681526020019081526020015f205f9054906101000a900460ff16905092915050565b5f33905090565b613e5780620001f75f395ff3fe608060405234801561000f575f80fd5b5060043610610204575f3560e01c80637dc0d1d011610118578063b5af090f116100ab578063d547741f1161007a578063d547741f146105e4578063e4098a8214610600578063e94032561461061c578063ec18154e1461064c578063f3fef3a31461066a57610204565b8063b5af090f14610538578063c23f001f14610568578063c2ccaa1414610598578063c9bcc97e146105c857610204565b80638980f11f116100e75780638980f11f1461049e57806391d14854146104ba5780639a0ba2ea146104ea578063a217fddf1461051a57610204565b80637dc0d1d01461042a5780637e3ef7cd1461044857806381a3fdb6146104785780638456cb591461049457610204565b806336568abe1161019b5780636e1d616e1161016a5780636e1d616e146103985780636ff1c9bc146103b657806375b238fc146103d257806376082a5e146103f05780637adbf9731461040e57610204565b806336568abe146103385780633f4ba83a1461035457806347e7ef241461035e5780635c975abb1461037a57610204565b806326aa101f116101d757806326aa101f146102b4578063272d177d146102e45780632ef48421146103005780632f2ff15d1461031c57610204565b806301ffc9a71461020857806309824a80146102385780630e014cf814610254578063248a9ca314610284575b5f80fd5b610222600480360381019061021d9190612b83565b610686565b60405161022f9190612bc8565b60405180910390f35b610252600480360381019061024d9190612c3b565b6106ff565b005b61026e60048036038101906102699190612c66565b6108da565b60405161027b9190612cbc565b60405180910390f35b61029e60048036038101906102999190612d08565b610987565b6040516102ab9190612d42565b60405180910390f35b6102ce60048036038101906102c99190612c3b565b6109a3565b6040516102db9190612bc8565b60405180910390f35b6102fe60048036038101906102f99190612d85565b6109c0565b005b61031a60048036038101906103159190612dc3565b610aed565b005b61033660048036038101906103319190612dc3565b610b26565b005b610352600480360381019061034d9190612dc3565b610b47565b005b61035c610bca565b005b61037860048036038101906103739190612d85565b610bff565b005b610382611034565b60405161038f9190612bc8565b60405180910390f35b6103a0611049565b6040516103ad9190612d42565b60405180910390f35b6103d060048036038101906103cb9190612c3b565b61106d565b005b6103da611311565b6040516103e79190612d42565b60405180910390f35b6103f8611335565b6040516104059190612d42565b60405180910390f35b61042860048036038101906104239190612c3b565b611359565b005b610432611478565b60405161043f9190612e5c565b60405180910390f35b610462600480360381019061045d9190612c3b565b61149d565b60405161046f9190612cbc565b60405180910390f35b610492600480360381019061048d9190612dc3565b611549565b005b61049c611582565b005b6104b860048036038101906104b39190612d85565b6115b7565b005b6104d460048036038101906104cf9190612dc3565b611690565b6040516104e19190612bc8565b60405180910390f35b61050460048036038101906104ff9190612e75565b6116f3565b6040516105119190612eaf565b60405180910390f35b61052261172e565b60405161052f9190612d42565b60405180910390f35b610552600480360381019061054d9190612c3b565b611734565b60405161055f9190612bc8565b60405180910390f35b610582600480360381019061057d9190612c66565b611751565b60405161058f9190612cbc565b60405180910390f35b6105b260048036038101906105ad9190612c3b565b611771565b6040516105bf9190612cbc565b60405180910390f35b6105e260048036038101906105dd9190612ef2565b611786565b005b6105fe60048036038101906105f99190612dc3565b6118c5565b005b61061a60048036038101906106159190612fe6565b6118e6565b005b61063660048036038101906106319190612c3b565b611b25565b6040516106439190612cbc565b60405180910390f35b610654611b3a565b6040516106619190612cbc565b60405180910390f35b610684600480360381019061067f9190612d85565b611dce565b005b5f7f7965db0b000000000000000000000000000000000000000000000000000000007bffffffffffffffffffffffffffffffffffffffffffffffffffffffff1916827bffffffffffffffffffffffffffffffffffffffffffffffffffffffff191614806106f857506106f7826120c2565b5b9050919050565b7fa49807205ce4d355092ef5a8a18f56e8913cf4a201fbe287825b095693c217756107298161212b565b5f73ffffffffffffffffffffffffffffffffffffffff168273ffffffffffffffffffffffffffffffffffffffff1603610797576040517f08c379a000000000000000000000000000000000000000000000000000000000815260040161078e906130be565b60405180910390fd5b60075f8373ffffffffffffffffffffffffffffffffffffffff1673ffffffffffffffffffffffffffffffffffffffff1681526020019081526020015f205f9054906101000a900460ff1615610821576040517f08c379a000000000000000000000000000000000000000000000000000000000815260040161081890613126565b60405180910390fd5b600160075f8473ffffffffffffffffffffffffffffffffffffffff1673ffffffffffffffffffffffffffffffffffffffff1681526020019081526020015f205f6101000a81548160ff021916908315150217905550600882908060018154018082558091505060019003905f5260205f20015f9091909190916101000a81548173ffffffffffffffffffffffffffffffffffffffff021916908373ffffffffffffffffffffffffffffffffffffffff1602179055505050565b5f7f59a1c48e5837ad7a7f3dcedcbe129bf3249ec4fbf651fd4f5e2600ead39fe2f56109058161212b565b60055f8573ffffffffffffffffffffffffffffffffffffffff1673ffffffffffffffffffffffffffffffffffffffff1681526020019081526020015f205f8473ffffffffffffffffffffffffffffffffffffffff1673ffffffffffffffffffffffffffffffffffffffff1681526020019081526020015f205491505092915050565b5f805f8381526020019081526020015f20600101549050919050565b6007602052805f5260405f205f915054906101000a900460ff1681565b7fa49807205ce4d355092ef5a8a18f56e8913cf4a201fbe287825b095693c217756109ea8161212b565b5f73ffffffffffffffffffffffffffffffffffffffff168373ffffffffffffffffffffffffffffffffffffffff1603610a58576040517f08c379a0000000000000000000000000000000000000000000000000000000008152600401610a4f9061318e565b60405180910390fd5b8160045f8573ffffffffffffffffffffffffffffffffffffffff1673ffffffffffffffffffffffffffffffffffffffff1681526020019081526020015f20819055508273ffffffffffffffffffffffffffffffffffffffff167feaf15143570c71834bfc4bbd80560897b6b67aaa704aeefeeb2a3fb7f6054d0e83604051610ae09190612cbc565b60405180910390a2505050565b7fa49807205ce4d355092ef5a8a18f56e8913cf4a201fbe287825b095693c21775610b178161212b565b610b21838361213f565b505050565b610b2f82610987565b610b388161212b565b610b428383612219565b505050565b610b4f6122f3565b73ffffffffffffffffffffffffffffffffffffffff168173ffffffffffffffffffffffffffffffffffffffff1614610bbc576040517f08c379a0000000000000000000000000000000000000000000000000000000008152600401610bb39061321c565b60405180910390fd5b610bc6828261213f565b5050565b7fa49807205ce4d355092ef5a8a18f56e8913cf4a201fbe287825b095693c21775610bf48161212b565b610bfc6122fa565b50565b610c0761235b565b610c0f6123a5565b7fb165298935924f540e4181c03493a5d686c54a0aaeb3f6216de85b7ffbba7738610c398161212b565b60065f8473ffffffffffffffffffffffffffffffffffffffff1673ffffffffffffffffffffffffffffffffffffffff1681526020019081526020015f205f9054906101000a900460ff16610cc2576040517f08c379a0000000000000000000000000000000000000000000000000000000008152600401610cb990613284565b60405180910390fd5b5f73ffffffffffffffffffffffffffffffffffffffff168373ffffffffffffffffffffffffffffffffffffffff1603610d30576040517f08c379a0000000000000000000000000000000000000000000000000000000008152600401610d279061318e565b60405180910390fd5b5f8211610d72576040517f08c379a0000000000000000000000000000000000000000000000000000000008152600401610d69906132ec565b60405180910390fd5b60045f8473ffffffffffffffffffffffffffffffffffffffff1673ffffffffffffffffffffffffffffffffffffffff1681526020019081526020015f20548260055f8673ffffffffffffffffffffffffffffffffffffffff1673ffffffffffffffffffffffffffffffffffffffff1681526020019081526020015f205f3373ffffffffffffffffffffffffffffffffffffffff1673ffffffffffffffffffffffffffffffffffffffff1681526020019081526020015f2054610e349190613337565b1115610e75576040517f08c379a0000000000000000000000000000000000000000000000000000000008152600401610e6c906133b4565b60405180910390fd5b8160055f8573ffffffffffffffffffffffffffffffffffffffff1673ffffffffffffffffffffffffffffffffffffffff1681526020019081526020015f205f3373ffffffffffffffffffffffffffffffffffffffff1673ffffffffffffffffffffffffffffffffffffffff1681526020019081526020015f205f828254610efc9190613337565b925050819055508160035f8573ffffffffffffffffffffffffffffffffffffffff1673ffffffffffffffffffffffffffffffffffffffff1681526020019081526020015f205f828254610f4f9190613337565b92505081905550610f833330848673ffffffffffffffffffffffffffffffffffffffff166123f2909392919063ffffffff16565b3373ffffffffffffffffffffffffffffffffffffffff168373ffffffffffffffffffffffffffffffffffffffff167ff5681f9d0db1b911ac18ee83d515a1cf1051853a9eae418316a2fdf7dea427c58460035f8873ffffffffffffffffffffffffffffffffffffffff1673ffffffffffffffffffffffffffffffffffffffff1681526020019081526020015f205460405161101f9291906133d2565b60405180910390a35061103061247b565b5050565b5f60015f9054906101000a900460ff16905090565b7f59a1c48e5837ad7a7f3dcedcbe129bf3249ec4fbf651fd4f5e2600ead39fe2f581565b611075612485565b61107d6123a5565b7fb165298935924f540e4181c03493a5d686c54a0aaeb3f6216de85b7ffbba77386110a78161212b565b5f60055f8473ffffffffffffffffffffffffffffffffffffffff1673ffffffffffffffffffffffffffffffffffffffff1681526020019081526020015f205f3373ffffffffffffffffffffffffffffffffffffffff1673ffffffffffffffffffffffffffffffffffffffff1681526020019081526020015f205490505f8111611165576040517f08c379a000000000000000000000000000000000000000000000000000000000815260040161115c90613443565b60405180910390fd5b5f60055f8573ffffffffffffffffffffffffffffffffffffffff1673ffffffffffffffffffffffffffffffffffffffff1681526020019081526020015f205f3373ffffffffffffffffffffffffffffffffffffffff1673ffffffffffffffffffffffffffffffffffffffff1681526020019081526020015f20819055508060035f8573ffffffffffffffffffffffffffffffffffffffff1673ffffffffffffffffffffffffffffffffffffffff1681526020019081526020015f205f82825461122e9190613461565b9250508190555061126033828573ffffffffffffffffffffffffffffffffffffffff166124ce9092919063ffffffff16565b3373ffffffffffffffffffffffffffffffffffffffff168373ffffffffffffffffffffffffffffffffffffffff167f873da158b95a7e5e83e2f84a94eeadadc115c324112605ca1819b276b3b035fa8360035f8873ffffffffffffffffffffffffffffffffffffffff1673ffffffffffffffffffffffffffffffffffffffff1681526020019081526020015f20546040516112fc9291906133d2565b60405180910390a3505061130e61247b565b50565b7fa49807205ce4d355092ef5a8a18f56e8913cf4a201fbe287825b095693c2177581565b7fb165298935924f540e4181c03493a5d686c54a0aaeb3f6216de85b7ffbba773881565b7fa49807205ce4d355092ef5a8a18f56e8913cf4a201fbe287825b095693c217756113838161212b565b5f73ffffffffffffffffffffffffffffffffffffffff168273ffffffffffffffffffffffffffffffffffffffff16036113f1576040517f08c379a00000000000000000000000000000000000000000000000000000000081526004016113e8906134de565b60405180910390fd5b8160095f6101000a81548173ffffffffffffffffffffffffffffffffffffffff021916908373ffffffffffffffffffffffffffffffffffffffff1602179055508173ffffffffffffffffffffffffffffffffffffffff167f3df77beb5db05fcdd70a30fc8adf3f83f9501b68579455adbd100b818094039460405160405180910390a25050565b60095f9054906101000a900473ffffffffffffffffffffffffffffffffffffffff1681565b5f7fb165298935924f540e4181c03493a5d686c54a0aaeb3f6216de85b7ffbba77386114c88161212b565b60055f8473ffffffffffffffffffffffffffffffffffffffff1673ffffffffffffffffffffffffffffffffffffffff1681526020019081526020015f205f3373ffffffffffffffffffffffffffffffffffffffff1673ffffffffffffffffffffffffffffffffffffffff1681526020019081526020015f2054915050919050565b7fa49807205ce4d355092ef5a8a18f56e8913cf4a201fbe287825b095693c217756115738161212b565b61157d8383612219565b505050565b7fa49807205ce4d355092ef5a8a18f56e8913cf4a201fbe287825b095693c217756115ac8161212b565b6115b4612554565b50565b7fa49807205ce4d355092ef5a8a18f56e8913cf4a201fbe287825b095693c217756115e18161212b565b5f60045f8573ffffffffffffffffffffffffffffffffffffffff1673ffffffffffffffffffffffffffffffffffffffff1681526020019081526020015f205414611660576040517f08c379a00000000000000000000000000000000000000000000000000000000081526004016116579061356c565b60405180910390fd5b61168b33838573ffffffffffffffffffffffffffffffffffffffff166124ce9092919063ffffffff16565b505050565b5f805f8481526020019081526020015f205f015f8373ffffffffffffffffffffffffffffffffffffffff1673ffffffffffffffffffffffffffffffffffffffff1681526020019081526020015f205f9054906101000a900460ff16905092915050565b60088181548110611702575f80fd5b905f5260205f20015f915054906101000a900473ffffffffffffffffffffffffffffffffffffffff1681565b5f801b81565b6006602052805f5260405f205f915054906101000a900460ff1681565b6005602052815f5260405f20602052805f5260405f205f91509150505481565b6004602052805f5260405f205f915090505481565b7fa49807205ce4d355092ef5a8a18f56e8913cf4a201fbe287825b095693c217756117b08161212b565b5f73ffffffffffffffffffffffffffffffffffffffff168373ffffffffffffffffffffffffffffffffffffffff160361181e576040517f08c379a00000000000000000000000000000000000000000000000000000000081526004016118159061318e565b60405180910390fd5b8160065f8573ffffffffffffffffffffffffffffffffffffffff1673ffffffffffffffffffffffffffffffffffffffff1681526020019081526020015f205f6101000a81548160ff0219169083151502179055508273ffffffffffffffffffffffffffffffffffffffff167fef81a9943b96c8df4ef243401c9bf5159146166211356898b52d382086168d92836040516118b89190612bc8565b60405180910390a2505050565b6118ce82610987565b6118d78161212b565b6118e1838361213f565b505050565b7fa49807205ce4d355092ef5a8a18f56e8913cf4a201fbe287825b095693c217756119108161212b565b828290508585905014611958576040517f08c379a000000000000000000000000000000000000000000000000000000000815260040161194f906135d4565b60405180910390fd5b5f5b85859050811015611b1d575f73ffffffffffffffffffffffffffffffffffffffff1686868381811061198f5761198e6135f2565b5b90506020020160208101906119a49190612c3b565b73ffffffffffffffffffffffffffffffffffffffff16036119fa576040517f08c379a00000000000000000000000000000000000000000000000000000000081526004016119f19061318e565b60405180910390fd5b838382818110611a0d57611a0c6135f2565b5b9050602002013560045f888885818110611a2a57611a296135f2565b5b9050602002016020810190611a3f9190612c3b565b73ffffffffffffffffffffffffffffffffffffffff1673ffffffffffffffffffffffffffffffffffffffff1681526020019081526020015f2081905550858582818110611a8f57611a8e6135f2565b5b9050602002016020810190611aa49190612c3b565b73ffffffffffffffffffffffffffffffffffffffff167feaf15143570c71834bfc4bbd80560897b6b67aaa704aeefeeb2a3fb7f6054d0e858584818110611aee57611aed6135f2565b5b90506020020135604051611b029190612cbc565b60405180910390a28080611b159061361f565b91505061195a565b505050505050565b6003602052805f5260405f205f915090505481565b5f8073ffffffffffffffffffffffffffffffffffffffff1660095f9054906101000a900473ffffffffffffffffffffffffffffffffffffffff1673ffffffffffffffffffffffffffffffffffffffff1603611bca576040517f08c379a0000000000000000000000000000000000000000000000000000000008152600401611bc1906136b0565b60405180910390fd5b5f5b600880549050811015611dca575f60088281548110611bee57611bed6135f2565b5b905f5260205f20015f9054906101000a900473ffffffffffffffffffffffffffffffffffffffff16905060065f8273ffffffffffffffffffffffffffffffffffffffff1673ffffffffffffffffffffffffffffffffffffffff1681526020019081526020015f205f9054906101000a900460ff168015611caa57505f60035f8373ffffffffffffffffffffffffffffffffffffffff1673ffffffffffffffffffffffffffffffffffffffff1681526020019081526020015f2054115b15611db6575f60095f9054906101000a900473ffffffffffffffffffffffffffffffffffffffff1673ffffffffffffffffffffffffffffffffffffffff16638b2f0f4f836040518263ffffffff1660e01b8152600401611d0a9190612eaf565b602060405180830381865afa158015611d25573d5f803e3d5ffd5b505050506040513d601f19601f82011682018060405250810190611d4991906136e2565b9050670de0b6b3a76400008160035f8573ffffffffffffffffffffffffffffffffffffffff1673ffffffffffffffffffffffffffffffffffffffff1681526020019081526020015f2054611d9d919061370d565b611da7919061377b565b84611db29190613337565b9350505b508080611dc29061361f565b915050611bcc565b5090565b611dd661235b565b611dde6123a5565b7fb165298935924f540e4181c03493a5d686c54a0aaeb3f6216de85b7ffbba7738611e088161212b565b5f8211611e4a576040517f08c379a0000000000000000000000000000000000000000000000000000000008152600401611e41906132ec565b60405180910390fd5b8160055f8573ffffffffffffffffffffffffffffffffffffffff1673ffffffffffffffffffffffffffffffffffffffff1681526020019081526020015f205f3373ffffffffffffffffffffffffffffffffffffffff1673ffffffffffffffffffffffffffffffffffffffff1681526020019081526020015f20541015611f05576040517f08c379a0000000000000000000000000000000000000000000000000000000008152600401611efc906137f5565b60405180910390fd5b8160055f8573ffffffffffffffffffffffffffffffffffffffff1673ffffffffffffffffffffffffffffffffffffffff1681526020019081526020015f205f3373ffffffffffffffffffffffffffffffffffffffff1673ffffffffffffffffffffffffffffffffffffffff1681526020019081526020015f205f828254611f8c9190613461565b925050819055508160035f8573ffffffffffffffffffffffffffffffffffffffff1673ffffffffffffffffffffffffffffffffffffffff1681526020019081526020015f205f828254611fdf9190613461565b9250508190555061201133838573ffffffffffffffffffffffffffffffffffffffff166124ce9092919063ffffffff16565b3373ffffffffffffffffffffffffffffffffffffffff168373ffffffffffffffffffffffffffffffffffffffff167f91fb9d98b786c57d74c099ccd2beca1739e9f6a81fb49001ca465c4b7591bbe28460035f8873ffffffffffffffffffffffffffffffffffffffff1673ffffffffffffffffffffffffffffffffffffffff1681526020019081526020015f20546040516120ad9291906133d2565b60405180910390a3506120be61247b565b5050565b5f7f01ffc9a7000000000000000000000000000000000000000000000000000000007bffffffffffffffffffffffffffffffffffffffffffffffffffffffff1916827bffffffffffffffffffffffffffffffffffffffffffffffffffffffff1916149050919050565b61213c816121376122f3565b6125b5565b50565b6121498282611690565b15612215575f805f8481526020019081526020015f205f015f8373ffffffffffffffffffffffffffffffffffffffff1673ffffffffffffffffffffffffffffffffffffffff1681526020019081526020015f205f6101000a81548160ff0219169083151502179055506121ba6122f3565b73ffffffffffffffffffffffffffffffffffffffff168173ffffffffffffffffffffffffffffffffffffffff16837ff6391f5c32d9c69d2a47ea670b442974b53935d1edc7fd64eb21e047a839171b60405160405180910390a45b5050565b6122238282611690565b6122ef5760015f808481526020019081526020015f205f015f8373ffffffffffffffffffffffffffffffffffffffff1673ffffffffffffffffffffffffffffffffffffffff1681526020019081526020015f205f6101000a81548160ff0219169083151502179055506122946122f3565b73ffffffffffffffffffffffffffffffffffffffff168173ffffffffffffffffffffffffffffffffffffffff16837f2f8788117e7eff1d82e926ec794901d17c78024a50270940304540a733656f0d60405160405180910390a45b5050565b5f33905090565b612302612485565b5f60015f6101000a81548160ff0219169083151502179055507f5db9ee0a495bf2e6ff9c91a7834c1ba4fdd244a5e8aa4e537bd38aeae4b073aa6123446122f3565b6040516123519190612eaf565b60405180910390a1565b612363611034565b156123a3576040517f08c379a000000000000000000000000000000000000000000000000000000000815260040161239a9061385d565b60405180910390fd5b565b60028054036123e9576040517f08c379a00000000000000000000000000000000000000000000000000000000081526004016123e0906138c5565b60405180910390fd5b60028081905550565b612475846323b872dd60e01b858585604051602401612413939291906138e3565b604051602081830303815290604052907bffffffffffffffffffffffffffffffffffffffffffffffffffffffff19166020820180517bffffffffffffffffffffffffffffffffffffffffffffffffffffffff8381831617835250505050612639565b50505050565b6001600281905550565b61248d611034565b6124cc576040517f08c379a00000000000000000000000000000000000000000000000000000000081526004016124c390613962565b60405180910390fd5b565b61254f8363a9059cbb60e01b84846040516024016124ed929190613980565b604051602081830303815290604052907bffffffffffffffffffffffffffffffffffffffffffffffffffffffff19166020820180517bffffffffffffffffffffffffffffffffffffffffffffffffffffffff8381831617835250505050612639565b505050565b61255c61235b565b6001805f6101000a81548160ff0219169083151502179055507f62e78cea01bee320cd4e420270b5ea74000d11b0c9f74754ebdbfc544b05a25861259e6122f3565b6040516125ab9190612eaf565b60405180910390a1565b6125bf8282611690565b612635576125cc816126ff565b6125d9835f1c602061272c565b6040516020016125ea929190613aa7565b6040516020818303038152906040526040517f08c379a000000000000000000000000000000000000000000000000000000000815260040161262c9190613b28565b60405180910390fd5b5050565b5f61269a826040518060400160405280602081526020017f5361666545524332303a206c6f772d6c6576656c2063616c6c206661696c65648152508573ffffffffffffffffffffffffffffffffffffffff166129619092919063ffffffff16565b90505f815114806126bb5750808060200190518101906126ba9190613b5c565b5b6126fa576040517f08c379a00000000000000000000000000000000000000000000000000000000081526004016126f190613bf7565b60405180910390fd5b505050565b60606127258273ffffffffffffffffffffffffffffffffffffffff16601460ff1661272c565b9050919050565b60605f600283600261273e919061370d565b6127489190613337565b67ffffffffffffffff81111561276157612760613c15565b5b6040519080825280601f01601f1916602001820160405280156127935781602001600182028036833780820191505090505b5090507f3000000000000000000000000000000000000000000000000000000000000000815f815181106127ca576127c96135f2565b5b60200101907effffffffffffffffffffffffffffffffffffffffffffffffffffffffffffff191690815f1a9053507f78000000000000000000000000000000000000000000000000000000000000008160018151811061282d5761282c6135f2565b5b60200101907effffffffffffffffffffffffffffffffffffffffffffffffffffffffffffff191690815f1a9053505f600184600261286b919061370d565b6128759190613337565b90505b6001811115612914577f3031323334353637383961626364656600000000000000000000000000000000600f8616601081106128b7576128b66135f2565b5b1a60f81b8282815181106128ce576128cd6135f2565b5b60200101907effffffffffffffffffffffffffffffffffffffffffffffffffffffffffffff191690815f1a905350600485901c94508061290d90613c42565b9050612878565b505f8414612957576040517f08c379a000000000000000000000000000000000000000000000000000000000815260040161294e90613cb3565b60405180910390fd5b8091505092915050565b606061296f84845f85612978565b90509392505050565b6060824710156129bd576040517f08c379a00000000000000000000000000000000000000000000000000000000081526004016129b490613d41565b60405180910390fd5b5f808673ffffffffffffffffffffffffffffffffffffffff1685876040516129e59190613da3565b5f6040518083038185875af1925050503d805f8114612a1f576040519150601f19603f3d011682016040523d82523d5f602084013e612a24565b606091505b5091509150612a3587838387612a41565b92505050949350505050565b60608315612aa2575f835103612a9a57612a5a85612ab5565b612a99576040517f08c379a0000000000000000000000000000000000000000000000000000000008152600401612a9090613e03565b60405180910390fd5b5b829050612aad565b612aac8383612ad7565b5b949350505050565b5f808273ffffffffffffffffffffffffffffffffffffffff163b119050919050565b5f82511115612ae95781518083602001fd5b806040517f08c379a0000000000000000000000000000000000000000000000000000000008152600401612b1d9190613b28565b60405180910390fd5b5f80fd5b5f80fd5b5f7fffffffff0000000000000000000000000000000000000000000000000000000082169050919050565b612b6281612b2e565b8114612b6c575f80fd5b50565b5f81359050612b7d81612b59565b92915050565b5f60208284031215612b9857612b97612b26565b5b5f612ba584828501612b6f565b91505092915050565b5f8115159050919050565b612bc281612bae565b82525050565b5f602082019050612bdb5f830184612bb9565b92915050565b5f73ffffffffffffffffffffffffffffffffffffffff82169050919050565b5f612c0a82612be1565b9050919050565b612c1a81612c00565b8114612c24575f80fd5b50565b5f81359050612c3581612c11565b92915050565b5f60208284031215612c5057612c4f612b26565b5b5f612c5d84828501612c27565b91505092915050565b5f8060408385031215612c7c57612c7b612b26565b5b5f612c8985828601612c27565b9250506020612c9a85828601612c27565b9150509250929050565b5f819050919050565b612cb681612ca4565b82525050565b5f602082019050612ccf5f830184612cad565b92915050565b5f819050919050565b612ce781612cd5565b8114612cf1575f80fd5b50565b5f81359050612d0281612cde565b92915050565b5f60208284031215612d1d57612d1c612b26565b5b5f612d2a84828501612cf4565b91505092915050565b612d3c81612cd5565b82525050565b5f602082019050612d555f830184612d33565b92915050565b612d6481612ca4565b8114612d6e575f80fd5b50565b5f81359050612d7f81612d5b565b92915050565b5f8060408385031215612d9b57612d9a612b26565b5b5f612da885828601612c27565b9250506020612db985828601612d71565b9150509250929050565b5f8060408385031215612dd957612dd8612b26565b5b5f612de685828601612cf4565b9250506020612df785828601612c27565b9150509250929050565b5f819050919050565b5f612e24612e1f612e1a84612be1565b612e01565b612be1565b9050919050565b5f612e3582612e0a565b9050919050565b5f612e4682612e2b565b9050919050565b612e5681612e3c565b82525050565b5f602082019050612e6f5f830184612e4d565b92915050565b5f60208284031215612e8a57612e89612b26565b5b5f612e9784828501612d71565b91505092915050565b612ea981612c00565b82525050565b5f602082019050612ec25f830184612ea0565b92915050565b612ed181612bae565b8114612edb575f80fd5b50565b5f81359050612eec81612ec8565b92915050565b5f8060408385031215612f0857612f07612b26565b5b5f612f1585828601612c27565b9250506020612f2685828601612ede565b9150509250929050565b5f80fd5b5f80fd5b5f80fd5b5f8083601f840112612f5157612f50612f30565b5b8235905067ffffffffffffffff811115612f6e57612f6d612f34565b5b602083019150836020820283011115612f8a57612f89612f38565b5b9250929050565b5f8083601f840112612fa657612fa5612f30565b5b8235905067ffffffffffffffff811115612fc357612fc2612f34565b5b602083019150836020820283011115612fdf57612fde612f38565b5b9250929050565b5f805f8060408587031215612ffe57612ffd612b26565b5b5f85013567ffffffffffffffff81111561301b5761301a612b2a565b5b61302787828801612f3c565b9450945050602085013567ffffffffffffffff81111561304a57613049612b2a565b5b61305687828801612f91565b925092505092959194509250565b5f82825260208201905092915050565b7f496e76616c696420746f6b656e000000000000000000000000000000000000005f82015250565b5f6130a8600d83613064565b91506130b382613074565b602082019050919050565b5f6020820190508181035f8301526130d58161309c565b9050919050565b7f416c7265616479207265676973746572656400000000000000000000000000005f82015250565b5f613110601283613064565b915061311b826130dc565b602082019050919050565b5f6020820190508181035f83015261313d81613104565b9050919050565b7f496e76616c696420746f6b656e206164647265737300000000000000000000005f82015250565b5f613178601583613064565b915061318382613144565b602082019050919050565b5f6020820190508181035f8301526131a58161316c565b9050919050565b7f416363657373436f6e74726f6c3a2063616e206f6e6c792072656e6f756e63655f8201527f20726f6c657320666f722073656c660000000000000000000000000000000000602082015250565b5f613206602f83613064565b9150613211826131ac565b604082019050919050565b5f6020820190508181035f830152613233816131fa565b9050919050565b7f546f6b656e206e6f7420616c6c6f7765640000000000000000000000000000005f82015250565b5f61326e601183613064565b91506132798261323a565b602082019050919050565b5f6020820190508181035f83015261329b81613262565b9050919050565b7f416d6f756e74206d7573742062652067726561746572207468616e20300000005f82015250565b5f6132d6601d83613064565b91506132e1826132a2565b602082019050919050565b5f6020820190508181035f830152613303816132ca565b9050919050565b7f4e487b71000000000000000000000000000000000000000000000000000000005f52601160045260245ffd5b5f61334182612ca4565b915061334c83612ca4565b92508282019050808211156133645761336361330a565b5b92915050565b7f4465706f736974206c696d6974206578636565646564000000000000000000005f82015250565b5f61339e601683613064565b91506133a98261336a565b602082019050919050565b5f6020820190508181035f8301526133cb81613392565b9050919050565b5f6040820190506133e55f830185612cad565b6133f26020830184612cad565b9392505050565b7f4e6f2066756e647320746f2077697468647261770000000000000000000000005f82015250565b5f61342d601483613064565b9150613438826133f9565b602082019050919050565b5f6020820190508181035f83015261345a81613421565b9050919050565b5f61346b82612ca4565b915061347683612ca4565b925082820390508181111561348e5761348d61330a565b5b92915050565b7f496e76616c6964206f7261636c650000000000000000000000000000000000005f82015250565b5f6134c8600e83613064565b91506134d382613494565b602082019050919050565b5f6020820190508181035f8301526134f5816134bc565b9050919050565b7f43616e6e6f74207265636f76657220616374697665207661756c7420746f6b655f8201527f6e00000000000000000000000000000000000000000000000000000000000000602082015250565b5f613556602183613064565b9150613561826134fc565b604082019050919050565b5f6020820190508181035f8301526135838161354a565b9050919050565b7f4c656e677468206d69736d6174636800000000000000000000000000000000005f82015250565b5f6135be600f83613064565b91506135c98261358a565b602082019050919050565b5f6020820190508181035f8301526135eb816135b2565b9050919050565b7f4e487b71000000000000000000000000000000000000000000000000000000005f52603260045260245ffd5b5f61362982612ca4565b91507fffffffffffffffffffffffffffffffffffffffffffffffffffffffffffffffff820361365b5761365a61330a565b5b600182019050919050565b7f4f7261636c65206e6f74207365740000000000000000000000000000000000005f82015250565b5f61369a600e83613064565b91506136a582613666565b602082019050919050565b5f6020820190508181035f8301526136c78161368e565b9050919050565b5f815190506136dc81612d5b565b92915050565b5f602082840312156136f7576136f6612b26565b5b5f613704848285016136ce565b91505092915050565b5f61371782612ca4565b915061372283612ca4565b925082820261373081612ca4565b915082820484148315176137475761374661330a565b5b5092915050565b7f4e487b71000000000000000000000000000000000000000000000000000000005f52601260045260245ffd5b5f61378582612ca4565b915061379083612ca4565b9250826137a05761379f61374e565b5b828204905092915050565b7f496e73756666696369656e742062616c616e63650000000000000000000000005f82015250565b5f6137df601483613064565b91506137ea826137ab565b602082019050919050565b5f6020820190508181035f83015261380c816137d3565b9050919050565b7f5061757361626c653a20706175736564000000000000000000000000000000005f82015250565b5f613847601083613064565b915061385282613813565b602082019050919050565b5f6020820190508181035f8301526138748161383b565b9050919050565b7f5265656e7472616e637947756172643a207265656e7472616e742063616c6c005f82015250565b5f6138af601f83613064565b91506138ba8261387b565b602082019050919050565b5f6020820190508181035f8301526138dc816138a3565b9050919050565b5f6060820190506138f65f830186612ea0565b6139036020830185612ea0565b6139106040830184612cad565b949350505050565b7f5061757361626c653a206e6f74207061757365640000000000000000000000005f82015250565b5f61394c601483613064565b915061395782613918565b602082019050919050565b5f6020820190508181035f83015261397981613940565b9050919050565b5f6040820190506139935f830185612ea0565b6139a06020830184612cad565b9392505050565b5f81905092915050565b7f416363657373436f6e74726f6c3a206163636f756e74200000000000000000005f82015250565b5f6139e56017836139a7565b91506139f0826139b1565b601782019050919050565b5f81519050919050565b5f5b83811015613a22578082015181840152602081019050613a07565b5f8484015250505050565b5f613a37826139fb565b613a4181856139a7565b9350613a51818560208601613a05565b80840191505092915050565b7f206973206d697373696e6720726f6c65200000000000000000000000000000005f82015250565b5f613a916011836139a7565b9150613a9c82613a5d565b601182019050919050565b5f613ab1826139d9565b9150613abd8285613a2d565b9150613ac882613a85565b9150613ad48284613a2d565b91508190509392505050565b5f601f19601f8301169050919050565b5f613afa826139fb565b613b048185613064565b9350613b14818560208601613a05565b613b1d81613ae0565b840191505092915050565b5f6020820190508181035f830152613b408184613af0565b905092915050565b5f81519050613b5681612ec8565b92915050565b5f60208284031215613b7157613b70612b26565b5b5f613b7e84828501613b48565b91505092915050565b7f5361666545524332303a204552433230206f7065726174696f6e20646964206e5f8201527f6f74207375636365656400000000000000000000000000000000000000000000602082015250565b5f613be1602a83613064565b9150613bec82613b87565b604082019050919050565b5f6020820190508181035f830152613c0e81613bd5565b9050919050565b7f4e487b71000000000000000000000000000000000000000000000000000000005f52604160045260245ffd5b5f613c4c82612ca4565b91505f8203613c5e57613c5d61330a565b5b600182039050919050565b7f537472696e67733a20686578206c656e67746820696e73756666696369656e745f82015250565b5f613c9d602083613064565b9150613ca882613c69565b602082019050919050565b5f6020820190508181035f830152613cca81613c91565b9050919050565b7f416464726573733a20696e73756666696369656e742062616c616e636520666f5f8201527f722063616c6c0000000000000000000000000000000000000000000000000000602082015250565b5f613d2b602683613064565b9150613d3682613cd1565b604082019050919050565b5f6020820190508181035f830152613d5881613d1f565b9050919050565b5f81519050919050565b5f81905092915050565b5f613d7d82613d5f565b613d878185613d69565b9350613d97818560208601613a05565b80840191505092915050565b5f613dae8284613d73565b915081905092915050565b7f416464726573733a2063616c6c20746f206e6f6e2d636f6e74726163740000005f82015250565b5f613ded601d83613064565b9150613df882613db9565b602082019050919050565b5f6020820190508181035f830152613e1a81613de1565b905091905056fea26469706673582212208e3db21f2e43eefd74a3d4d59f653fbb5e286239d01617a563b2e9411813909464736f6c63430008140033","linkReferences":{}},"methodIdentifiers":{"ADMIN_ROLE()":"75b238fc","AUDITOR_ROLE()":"6e1d616e","DEFAULT_ADMIN_ROLE()":"a217fddf","INVESTOR_ROLE()":"76082a5e","balances(address,address)":"c23f001f","deposit(address,uint256)":"47e7ef24","depositLimitPerToken(address)":"c2ccaa14","emergencyWithdraw(address)":"6ff1c9bc","getMyBalance(address)":"7e3ef7cd","getRoleAdmin(bytes32)":"248a9ca3","grantRole(bytes32,address)":"2f2ff15d","grantVaultRole(bytes32,address)":"81a3fdb6","hasRole(bytes32,address)":"91d14854","isTokenRegistered(address)":"26aa101f","isTokenWhitelisted(address)":"b5af090f","oracle()":"7dc0d1d0","pause()":"8456cb59","paused()":"5c975abb","recoverERC20(address,uint256)":"8980f11f","registerToken(address)":"09824a80","registeredTokens(uint256)":"9a0ba2ea","renounceRole(bytes32,address)":"36568abe","revokeRole(bytes32,address)":"d547741f","revokeVaultRole(bytes32,address)":"2ef48421","setDepositLimit(address,uint256)":"272d177d","setDepositLimits(address[],uint256[])":"e4098a82","setOracle(address)":"7adbf973","setTokenWhitelist(address,bool)":"c9bcc97e","supportsInterface(bytes4)":"01ffc9a7","totalDeposits(address)":"e9403256","totalValueLocked()":"ec18154e","unpause()":"3f4ba83a","viewBalance(address,address)":"0e014cf8","withdraw(address,uint256)":"f3fef3a3"},"id":1}